:100000000C942A000C9459040C9482040C94AB04B4
:100010000C9447000C9447000C94C3050C944700C3
:100020000C949A050C9471050C9448050C941F05CA
:100030000C94F6040C9413060C9447000C943C06A4
:100040000C94A0020C9447000C9447000C944700B9
:100050000C94470011241FBECFE5D8E0DEBFCDBF12
:1000600010E0A0E6B0E0E6E9FDE002C005900D92E8
:10007000A83AB107D9F721E0A8EAB0E001C01D9283
:10008000AE38B207E1F70E949E020C94C9060C94A8
:100090000000CF93C82F60E083E00E94D2036C2F52
:1000A000661F6627661F8BE00E94D203C6FB662789
:1000B00060F98AE00E94D203C5FB662760F989E0F7
:1000C0000E94D203C4FB662760F988E00E94D20335
:1000D00061E082E00E94D2038FEC97E00197F1F794
:1000E00000C0000060E082E00E94D2038FEC97E045
:1000F0000197F1F700C00000C3FB662760F98BE0B1
:100100000E94D203C2FB662760F98AE00E94D203F4
:10011000C1FB662760F989E00E94D2036C2F6170F1
:1001200088E00E94D20361E082E00E94D2038FEC5B
:1001300097E00197F1F700C0000060E082E00E94C4
:10014000D2038FEC97E00197F1F700C00000CF9148
:100150000895CF93C82F61E083E00E94D2036C2FF3
:10016000661F6627661F8BE00E94D203C6FB6627C8
:1001700060F98AE00E94D203C5FB662760F989E036
:100180000E94D203C4FB662760F988E00E94D20374
:1001900061E082E00E94D2038FEC97E00197F1F7D3
:1001A00000C0000060E082E00E94D2038FEC97E084
:1001B0000197F1F700C00000C3FB662760F98BE0F0
:1001C0000E94D203C2FB662760F98AE00E94D20334
:1001D000C1FB662760F989E00E94D2036C2F617031
:1001E00088E00E94D20361E082E00E94D2038FEC9B
:1001F00097E00197F1F700C0000060E082E00E9404
:10020000D2038FEC97E00197F1F700C00000CF9187
:1002100008952FE788E391E0215080409040E1F776
:1002200000C0000082E00E94490088E20E9449006C
:100230008CE00E94490081E00E9449008FEC97E029
:100240000197F1F700C0000086E00C9449000F937D
:100250001F93CF938C01C0E0F801EC0FF11D80815A
:10026000882321F00E94A900CF5FF6CFCF911F9184
:100270000F910895811103C0862F806804C08130DA
:1002800021F480EC860F0C9449000895982F862F56
:10029000911102C080580BC0913011F4805407C0F6
:1002A000923011F48C5603C0933019F48C520C9494
:1002B000490008954F925F926F927F92AF92BF92E2
:1002C000CF92DF92EF92FF921F93CF93DF93CDB740
:1002D000DEB72A970FB6F894DEBF0FBECDBF6B0115
:1002E0007C016115710581059105B1F480E32A96C1
:1002F0000FB6F894DEBF0FBECDBFDF91CF911F9137
:10030000FF90EF90DF90CF90BF90AF907F906F9075
:100310005F904F900C94A90097FF0BC0F094E0946D
:10032000D094C094C11CD11CE11CF11C8DE20E9430
:10033000A90010E09AE0492E512C612C712CAA24BE
:10034000A394B12CAC0EBD1EA10EB11CC701B60109
:10035000A30192010E948806605DF50160831F5F22
:1003600069017A01C114D104E104F10441F71123B8
:1003700041F0FE01E10FF11D80810E94A9001150A2
:10038000F6CF2A960FB6F894DEBF0FBECDBFDF9131
:10039000CF911F91FF90EF90DF90CF90BF90AF90E3
:1003A0007F906F905F904F900895EF92FF920F9320
:1003B0001F93CF93E090AA00F12C0091A90010E0C8
:1003C0000E94F404C4E1CE9D9001CF9D300D112414
:1003D0002A533F4FF901E00FF11F80838091A9005C
:1003E000E091AA00CE9FF0011124EA53FF4FE80FDD
:1003F000F11D9081911132C08091AC008F5F80938C
:10040000AC0060E081E00E9446018091AA00C89F94
:10041000C00111248A539F4F0E94270181E690E07A
:100420000E9427018091AA008F5F8093AA001092FA
:10043000A9008091AB008F5F8093AB0068E080E003
:100440000E943A016091AB0070E080E090E0CF91B3
:100450001F910F91FF90EF900C945A018F5F809342
:10046000A900CF911F910F91FF90EF900895CF9326
:100470008091AB00882391F18091A800C4E1C89FCE
:10048000C00111248A539F4F0E946906883031F5BC
:100490006AE081E00E9446018091A800C89FC001E7
:1004A00011248A539F4F0E94270181E690E00E9409
:1004B00027018091AB0081508093AB0068E080E021
:1004C0000E943A016091AB0070E080E090E00E94F1
:1004D0005A018091A8008F5F8093A800CF91089562
:1004E0000E94BF030E9409010E94EC0578940E94BB
:1004F000D8040E94ED0485ED91E00E94EF040E9473
:100500000C0685E696E00E940E0660E080E00E9400
:100510003A0185E690E00E9427016AE080E00E94AF
:100520003A018AE690E00E9427010E9437028FEC90
:1005300097E00197F1F700C00000F7CF0E9470022A
:100540001F920F920FB60F9211242F933F934F9348
:100550005F936F937F938F939F93AF93BF93EF932B
:10056000FF93E091AD00F091AE00309709F009954E
:10057000FF91EF91BF91AF919F918F917F916F917B
:100580005F914F913F912F910F900FBE0F901F9051
:100590001895982F9695969596958770613009F4E1
:1005A0004DC020F0623009F497C0E7C0913031F1BE
:1005B000A8F0923099F1933009F0DFC041B321E007
:1005C00030E0B90102C0660F771F8A95E2F7CB01D0
:1005D000942F982B91BB92B380957CC04AB321E0B5
:1005E00030E0B90102C0660F771F8A95E2F7CB01B0
:1005F000942F982B9ABB9BB3809547C047B321E0BB
:1006000030E0B90102C0660F771F8A95E2F7CB018F
:10061000942F982B97BB98B3809548C044B321E0A2
:1006200030E0B90102C0660F771F8A95E2F7CB016F
:10063000942F982B94BB95B3809549C0913039F194
:10064000A8F09230A9F1933009F097C041B321E0AE
:1006500030E0B90102C0660F771F8A95E2F7CB013F
:100660008095942F982391BB92B334C04AB321E074
:1006700030E0B90102C0660F771F8A95E2F7CB011F
:100680008095942F98239ABB9BB389234EC047B380
:1006900021E030E0B90102C0660F771F8A95E2F7CA
:1006A000CB018095942F982397BB98B3892350C092
:1006B00044B321E030E0B90102C0660F771F8A958C
:1006C000E2F7CB018095942F982394BB95B38923AF
:1006D00085BB2CC089234FC0913051F1B0F09230CE
:1006E000C9F1933009F049C041B321E030E0B901CC
:1006F00002C0660F771F8A95E2F7CB01962F90957F
:10070000942391BB92B3892B36C04AB321E030E0E9
:10071000B90102C0660F771F8A95E2F7CB01962FC9
:10072000909594239ABB9BB3892B8BBB80E0089553
:1007300047B321E030E0B90102C0660F771F8A9508
:10074000E2F7CB01962F9095942397BB98B3892B12
:1007500088BBECCF44B321E030E0B90102C0660FA2
:10076000771F8A95E2F7CB01962F9095942394BB3F
:1007700095B3892BADCF82BBD9CF81E008950F937C
:100780001F93CF930FE610E0C0E0F80161918F0155
:100790008C2F0E94C902CF5FC032B9F7CF911F9151
:1007A0000F910895982F9695969596958770662344
:1007B000D9F1613009F079C09130F1F088F09230D0
:1007C00039F1933009F073C042B321E030E0B90150
:1007D00002C0660F771F8A95E2F7CB01842B63C0B6
:1007E0004BB321E030E0B90102C0660F771F8A9554
:1007F000E2F7CB01842B38C048B321E030E0B901E7
:1008000002C0660F771F8A95E2F7CB01842B3AC0AE
:1008100045B321E030E0B90102C0660F771F8A9529
:10082000E2F7CB01842B3CC0913001F188F092308B
:1008300059F19330E1F542B321E030E0B90102C053
:10084000660F771F8A95E2F7CB01809584232BC032
:100850004BB321E030E0B90102C0660F771F8A95E3
:10086000E2F7CB01809584238BBB1BC048B321E00A
:1008700030E0B90102C0660F771F8A95E2F7CB011D
:100880008095842388BB0DC045B321E030E0B901D9
:1008900002C0660F771F8A95E2F7CB01809584230B
:1008A00085BB80E0089582BBFCCF83E0089581E0A2
:1008B00008951F920F920FB60F9211242F933F931A
:1008C0004F935F936F937F938F939F93AF93BF9358
:1008D000EF93FF93E091B300F091B400309709F0EB
:1008E0000995FF91EF91BF91AF919F918F917F916A
:1008F0006F915F914F913F912F910F900FBE0F908D
:100900001F9018951F920F920FB60F9211242F93DC
:100910003F934F935F936F937F938F939F93AF9387
:10092000BF93EF93FF93E091B100F091B200309745
:1009300009F00995FF91EF91BF91AF919F918F9130
:100940007F916F915F914F913F912F910F900FBECB
:100950000F901F9018951F920F920FB60F921124AF
:100960002F933F934F935F936F937F938F939F93B7
:10097000AF93BF93EF93FF93E091AF00F091B0007E
:10098000309709F00995FF91EF91BF91AF919F9139
:100990008F917F916F915F914F913F912F910F9028
:1009A0000FBE0F901F9018956898699870980895D9
:1009B00061E08DE00E94C90260E08EE00E94C90201
:1009C00061E08CE00E94C90261E08FE00E94C902F0
:1009D0006C980E94D4046E9A08956F9A089590932B
:1009E000B6008093B50008958FB108951F920F92BD
:1009F0000FB60F9211242F933F934F935F936F93F2
:100A00007F938F939F93AF93BF93EF93FF93E09167
:100A1000B500F091B600309709F00995FF91EF917C
:100A2000BF91AF919F918F917F916F915F914F9106
:100A30003F912F910F900FBE0F901F9018951F920E
:100A40000F920FB60F9211242F933F934F935F9302
:100A50006F937F938F939F93AF93BF93EF93FF9386
:100A6000E091BF00F091C000309709F00995FF9127
:100A7000EF91BF91AF919F918F917F916F915F9116
:100A80004F913F912F910F900FBE0F901F9018958F
:100A90001F920F920FB60F9211242F933F934F93F3
:100AA0005F936F937F938F939F93AF93BF93EF93D6
:100AB000FF93E091BD00F091BE00309709F00995D9
:100AC000FF91EF91BF91AF919F918F917F916F9126
:100AD0005F914F913F912F910F900FBE0F901F90FC
:100AE00018951F920F920FB60F9211242F933F93D8
:100AF0004F935F936F937F938F939F93AF93BF9326
:100B0000EF93FF93E091BB00F091BC00309709F0A8
:100B10000995FF91EF91BF91AF919F918F917F9137
:100B20006F915F914F913F912F910F900FBE0F905A
:100B30001F9018951F920F920FB60F9211242F93AA
:100B40003F934F935F936F937F938F939F93AF9355
:100B5000BF93EF93FF93E091B900F091BA00309703
:100B600009F00995FF91EF91BF91AF919F918F91FE
:100B70007F916F915F914F913F912F910F900FBE99
:100B80000F901F9018951F920F920FB60F9211247D
:100B90002F933F934F935F936F937F938F939F9385
:100BA000AF93BF93EF93FF93E091B700F091B8003C
:100BB000309709F00995FF91EF91BF91AF919F9107
:100BC0008F917F916F915F914F913F912F910F90F6
:100BD0000FBE0F901F90189510BC83E389B98091C8
:100BE0008F00813041F028F0823031F488E18AB9F9
:100BF00003C0539A01C0549A80B5846080BD80B50B
:100C0000826080BD80B58F7D80BD80B58F7E80BDC8
:100C100080B5877F80BD0895569A08959093C3004C
:100C20008093C20008951F920F920FB60F92112465
:100C30002F933F934F935F936F937F938F939F93E4
:100C4000AF93BF93EF93FF93E091C400F091C50081
:100C5000309709F00995FF91EF91BF91AF919F9166
:100C60008F917F916F915F914F913F912F910F9055
:100C70000FBE0F901F9018951F920F920FB60F92F4
:100C800011242F933F934F935F936F937F938F9391
:100C90009F93AF93BF93EF93FF93E091C200F091C6
:100CA000C300309709F00995FF91EF91BF91AF9183
:100CB0009F918F917F916F915F914F913F912F9174
:100CC0000F900FBE0F901F90189581E080936000E9
:100CD0000895209160002130B9F42091C100FC01F9
:100CE000E20FF11D8081811107C08DE080838CB9F6
:100CF0001092C10088E009C08CB98091C1008F5F5B
:100D00008093C1008AE001C080E0109260000895E5
:100D1000052E97FB1EF400940E949F0657FD07D0F6
:100D20000E94A70607FC03D04EF40C949F06509532
:100D30004095309521953F4F4F4F5F4F08959095C7
:100D40008095709561957F4F8F4F9F4F0895A1E2D9
:100D50001A2EAA1BBB1BFD010DC0AA1FBB1FEE1F35
:100D6000FF1FA217B307E407F50720F0A21BB30B80
:100D7000E40BF50B661F771F881F991F1A9469F7FC
:100D800060957095809590959B01AC01BD01CF0158
:060D90000895F894FFCF66
:100D96000120202000726563640073656E74000094
:100DA600000000000000000000000001010001003A
:100DB6000002020202000001000100000000000221
:100DC6000001020000030000000000000000000017
:080DD600000000000000000015
:00000001FF
