S00B00004E54492E737265632E
S11300000C942A000C9497040C94C0040C94E904F6
S11300100C9447000C9447000C94B6050C944700CC
S11300200C948D050C9464050C943B050C941205FA
S11300300C9447000C9447000C9447000C94470020
S11300400C94C1020C9447000C9447000C94470094
S11300500C94470011241FBECFE5D8E0DEBFCDBF0E
S113006010E0A0E6B0E0E2ECFBE002C005900D92E7
S1130070AA3AB107D9F720E0AAEAB0E001C01D927C
S1130080A63CB207E1F70E94B8020C94DF050C9479
S11300900000109263001092AC001092620083E1A1
S11300A0809361001092AB008AE0809360006EE65A
S11300B070E0809165000E949D026091AC00809187
S11300C063000E947902809165000E9477026EE6C7
S11300D070E0809165000E949D02609161008091B2
S11300E062000E947902809165000E94770266E6B0
S11300F070E0809164000E949D0260916000809194
S1130100AB000E947902809164000C947702809184
S113011060008F5F809360001092AA000895809120
S1130120600081508093600081E08093AA0008956C
S11301300E945D018093BF008933A1F48FE59AEE9C
S11301400197F1F700C0000080916300882309F44F
S113015068C041E06091AC000E948D028091630010
S1130160815015C08333F1F48FE59AEE0197F1F7CE
S113017000C0000080916300833008F052C041E069
S11301806091AC000E948D02809163008F5F809328
S113019063006091AC000E947902809165000E9426
S11301A077023FC0873399F48FE59AEE0197F1F710
S11301B000C0000080916200882399F141E06091C1
S11301C061000E948D0280916200815014C08133CD
S11301D0B9F48FE59AEE0197F1F700C00000809121
S11301E062008330F0F441E0609161000E948D026E
S11301F0809162008F5F8093620060916100CBCF39
S1130200843331F48091AB00882359F0815007C0C6
S1130210863339F48091AB00833018F48F5F809378
S1130220AB008091AA00811114C0809160008331D9
S1130230B0F48F5F8093600090916100891322C0B5
S11302409091AB008091620098131CC00E948F00B3
S113025019C0813089F580916000811104C089E062
S11302608093600008958150809360009091AC0069
S1130270891308C09091AB0080916300981302C069
S11302800E948700609160008091AB000E94790217
S1130290809164000E9477029FEF20E782E09150F2
S11302A020408040E1F700C0000041E06091600020
S11302B08091AB000C948D020895DF92EF92FF922F
S11302C00F931F93CF93DF9396E7E92E90E0F92ED7
S11302D0CBE1D4E560E08C2F0E94F30300E010E052
S11302E082E1D82ED00E8D2D0E947A04811109C08E
S11302F0F701E00FF11FD0818D2D0E947A0488232D
S1130300D9F30F5F1F4F0430110551F761E08C2FB3
S11303100E94F303CF5F84E0E80EF11CCF31D1F6E5
S11303208D2FDF91CF911F910F91FF90EF90DF9070
S11303300895CF93C82F60E083E00E94F3036C2FED
S1130340661F6627661F8CE00E94F303C6FB6627C0
S113035060F98AE00E94F303C5FB662760F989E02F
S11303600E94F303C4FB662760F98DE00E94F30347
S113037061E082E00E94F3038FEC97E00197F1F7CC
S113038000C0000060E082E00E94F3038FEC97E07D
S11303900197F1F700C00000C3FB662760F98CE009
S11303A00E94F303C2FB662760F98AE00E94F3030C
S11303B0C1FB662760F989E00E94F3036C2F61702A
S11303C08DE00E94F30361E082E00E94F3038FEC6E
S11303D097E00197F1F700C0000060E082E00E941E
S11303E0F3038FEC97E00197F1F700C00000CF9181
S11303F00895CF93C82F61E083E00E94F3036C2F2C
S1130400661F6627661F8CE00E94F303C6FB6627FF
S113041060F98AE00E94F303C5FB662760F989E06E
S11304200E94F303C4FB662760F98DE00E94F30386
S113043061E082E00E94F3038FEC97E00197F1F70B
S113044000C0000060E082E00E94F3038FEC97E0BC
S11304500197F1F700C00000C3FB662760F98CE048
S11304600E94F303C2FB662760F98AE00E94F3034B
S1130470C1FB662760F989E00E94F3036C2F617069
S11304808DE00E94F30361E082E00E94F3038FECAD
S113049097E00197F1F700C0000060E082E00E945D
S11304A0F3038FEC97E00197F1F700C00000CF91C0
S11304B008952FE788E391E0215080409040E1F7D0
S11304C000C0000082E00E94990188E20E94990124
S11304D08CE00E94990181E00E9499018FEC97E0E1
S11304E00197F1F700C0000086E00C9499010C9488
S11304F0F901982F862F911102C080580BC09130BA
S113050011F4805407C0923011F48C5603C0933018
S113051019F48C520C9499010895CF93DF93D42F3E
S11305200E947902C0E0CD1729F080E20E94F9010F
S1130530CF5FF9CFDF91CF9108950F931F93CF939E
S1130540DF938B01880F880F880F805C0E949901CC
S1130550E801085F1F4F89910E94F901C017D10774
S1130560D1F780E8DF91CF911F910F910C949901FD
S11305700E94E0030E9459020E9449000E949800D0
S1130580FDCF1F920F920FB60F9211242F933F931A
S11305904F935F936F937F938F939F93AF93BF9387
S11305A0EF93FF93E091AD00F091AE00309709F026
S11305B00995FF91EF91BF91AF919F918F917F9199
S11305C06F915F914F913F912F910F900FBE0F90BC
S11305D01F901895982F96959695969587706130EB
S11305E009F44DC020F0623009F497C0E7C091309F
S11305F031F1A8F0923099F1933009F0DFC041B3A2
S113060021E030E0B90102C0660F771F8A95E2F756
S1130610CB01942F982B91BB92B380957CC04AB3A5
S113062021E030E0B90102C0660F771F8A95E2F736
S1130630CB01942F982B9ABB9BB3809547C047B3AB
S113064021E030E0B90102C0660F771F8A95E2F716
S1130650CB01942F982B97BB98B3809548C044B393
S113066021E030E0B90102C0660F771F8A95E2F7F6
S1130670CB01942F982B94BB95B3809549C09130AE
S113068039F1A8F09230A9F1933009F097C041B341
S113069021E030E0B90102C0660F771F8A95E2F7C6
S11306A0CB018095942F982391BB92B334C04AB365
S11306B021E030E0B90102C0660F771F8A95E2F7A6
S11306C0CB018095942F98239ABB9BB389234EC06A
S11306D047B321E030E0B90102C0660F771F8A9565
S11306E0E2F7CB018095942F982397BB98B3892385
S11306F050C044B321E030E0B90102C0660F771F57
S11307008A95E2F7CB018095942F982394BB95B3F7
S1130710892385BB2CC089234FC0913051F1B0F09F
S11307209230C9F1933009F049C041B321E030E07F
S1130730B90102C0660F771F8A95E2F7CB01962FA5
S11307409095942391BB92B3892B36C04AB321E090
S113075030E0B90102C0660F771F8A95E2F7CB013A
S1130760962F909594239ABB9BB3892B8BBB80E0E7
S1130770089547B321E030E0B90102C0660F771F46
S11307808A95E2F7CB01962F9095942397BB98B363
S1130790892B88BBECCF44B321E030E0B90102C01F
S11307A0660F771F8A95E2F7CB01962F90959423D5
S11307B094BB95B3892BADCF82BBD9CF81E008958B
S11307C00F931F93CF930AE810E0C0E0F801619102
S11307D08F018C2F0E94EA02CF5FC032B9F7CF910C
S11307E01F910F910895982F9695969596958770D9
S11307F06623D9F1613009F079C09130F1F088F0C5
S1130800923039F1933009F073C042B321E030E003
S1130810B90102C0660F771F8A95E2F7CB01842BDA
S113082063C04BB321E030E0B90102C0660F771F0B
S11308308A95E2F7CB01842B38C048B321E030E03D
S1130840B90102C0660F771F8A95E2F7CB01842BAA
S11308503AC045B321E030E0B90102C0660F771F0A
S11308608A95E2F7CB01842B3CC0913001F188F0EA
S1130870923059F19330E1F542B321E030E0B9010F
S113088002C0660F771F8A95E2F7CB018095842317
S11308902BC04BB321E030E0B90102C0660F771FD3
S11308A08A95E2F7CB01809584238BBB1BC048B3A8
S11308B021E030E0B90102C0660F771F8A95E2F7A4
S11308C0CB018095842388BB0DC045B321E030E083
S11308D0B90102C0660F771F8A95E2F7CB018095B4
S11308E0842385BB80E0089582BBFCCF83E0089518
S11308F081E00895282F2770869586958695813006
S113090049F030F0823041F0833079F480B305C08F
S113091089B303C086B301C083B390E002C0959548
S113092087952A95E2F78170089580E008951F92D3
S11309300F920FB60F9211242F933F934F935F930F
S11309406F937F938F939F93AF93BF93EF93FF9393
S1130950E091B300F091B400309709F00995FF914C
S1130960EF91BF91AF919F918F917F916F915F9123
S11309704F913F912F910F900FBE0F901F9018959C
S11309801F920F920FB60F9211242F933F934F9300
S11309905F936F937F938F939F93AF93BF93EF93E3
S11309A0FF93E091B100F091B200309709F00995FE
S11309B0FF91EF91BF91AF919F918F917F916F9133
S11309C05F914F913F912F910F900FBE0F901F9009
S11309D018951F920F920FB60F9211242F933F93E5
S11309E04F935F936F937F938F939F93AF93BF9333
S11309F0EF93FF93E091AF00F091B000309709F0CE
S1130A000995FF91EF91BF91AF919F918F917F9144
S1130A106F915F914F913F912F910F900FBE0F9067
S1130A201F9018951F920F920FB60F9211242F93B7
S1130A303F934F935F936F937F938F939F93AF9362
S1130A40BF93EF93FF93E091BD00F091BE00309708
S1130A5009F00995FF91EF91BF91AF919F918F910B
S1130A607F916F915F914F913F912F910F900FBEA6
S1130A700F901F9018951F920F920FB60F9211248A
S1130A802F933F934F935F936F937F938F939F9392
S1130A90AF93BF93EF93FF93E091BB00F091BC0041
S1130AA0309709F00995FF91EF91BF91AF919F9114
S1130AB08F917F916F915F914F913F912F910F9003
S1130AC00FBE0F901F9018951F920F920FB60F92A2
S1130AD011242F933F934F935F936F937F938F933F
S1130AE09F93AF93BF93EF93FF93E091B900F0917D
S1130AF0BA00309709F00995FF91EF91BF91AF913A
S1130B009F918F917F916F915F914F913F912F9121
S1130B100F900FBE0F901F9018951F920F920FB653
S1130B200F9211242F933F934F935F936F937F936F
S1130B308F939F93AF93BF93EF93FF93E091B7008D
S1130B40F091B800309709F00995FF91EF91BF91AA
S1130B50AF919F918F917F916F915F914F913F9151
S1130B602F910F900FBE0F901F9018951F920F9208
S1130B700FB60F9211242F933F934F935F936F936C
S1130B807F938F939F93AF93BF93EF93FF93E091E2
S1130B90B500F091B600309709F00995FF91EF91F7
S1130BA0BF91AF919F918F917F916F915F914F9181
S1130BB03F912F910F900FBE0F901F901895F894AE
S1050BC0FFCF61
S1130BC20A1302020201000E1F1F1F0E0000040A74
S1130BD2041F040A0A116331343778787878303282
S1130BE235383D3336392B2D2A2F01010000000000
S1130BF200000000000000000000000002020202E7
S10D0C0200000000000000000000E4
S9030000FC
