S00B00004E54492E737265632E
S11300000C942A000C9419040C9442040C946B0470
S11300100C9447000C9447000C948D050C944700F5
S11300200C9464050C943B050C9412050C94E9049F
S11300300C94C0040C94DD050C9447000C94060643
S11300400C9460020C9447000C9447000C944700F5
S11300500C94470011241FBECFE5D8E0DEBFCDBF0E
S113006010E0A0E6B0E0E4E6FDE002C005900D92E9
S1130070A83AB107D9F721E0A8EAB0E001C01D927F
S1130080AC3BB207E1F70E945E020C94B0060C94FC
S11300900000CF93C82F60E083E00E9492036C2F8E
S11300A0661F6627661F8BE00E949203C6FB6627C5
S11300B060F98AE00E949203C5FB662760F989E033
S11300C00E949203C4FB662760F988E00E949203B1
S11300D061E082E00E9492038FE99FE00197F1F7CB
S11300E000C0000060E082E00E9492038FE99FE07C
S11300F00197F1F700C00000C3FB662760F98BE0AD
S11301000E949203C2FB662760F98AE00E94920370
S1130110C1FB662760F989E00E9492036C2F61702D
S113012088E00E94920361E082E00E9492038FE9DA
S11301309FE00197F1F700C0000060E082E00E94B8
S113014092038FE99FE00197F1F700C00000CF917F
S11301500895CF93C82F61E083E00E9492036C2F2F
S1130160661F6627661F8BE00E949203C6FB662704
S113017060F98AE00E949203C5FB662760F989E072
S11301800E949203C4FB662760F988E00E949203F0
S113019061E082E00E9492038FE99FE00197F1F70A
S11301A000C0000060E082E00E9492038FE99FE0BB
S11301B00197F1F700C00000C3FB662760F98BE0EC
S11301C00E949203C2FB662760F98AE00E949203B0
S11301D0C1FB662760F989E00E9492036C2F61706D
S11301E088E00E94920361E082E00E9492038FE91A
S11301F09FE00197F1F700C0000060E082E00E94F8
S113020092038FE99FE00197F1F700C00000CF91BE
S113021008952FEF80E792E0215080409040E1F76D
S113022000C0000082E00E94490088E20E94490068
S11302308CE00E94490081E00E9449008FE99FE020
S11302400197F1F700C0000086E00C9449000F9379
S11302501F93CF938C01C0E0F801EC0FF11D808156
S1130260882321F00E94A900CF5FF6CFCF911F9180
S11302700F910895811103C0862F806804C08130D6
S113028021F480EC860F0C94490008954F925F92FC
S11302906F927F92AF92BF92CF92DF92EF92FF92D2
S11302A01F93CF93DF93CDB7DEB72A970FB6F89499
S11302B0DEBF0FBECDBF6B017C01611571058105E9
S11302C09105B1F480E32A960FB6F894DEBF0FBE11
S11302D0CDBFDF91CF911F91FF90EF90DF90CF9032
S11302E0BF90AF907F906F905F904F900C94A90057
S11302F097FF0BC0F094E094D094C094C11CD11C1F
S1130300E11CF11C8DE20E94A90010E09AE0492E44
S1130310512C612C712CAA24A394B12CAC0EBD1EBB
S1130320A10EB11CC701B601A30192010E946F0680
S1130330605DF50160831F5F69017A01C114D10416
S1130340E104F10441F7112341F0FE01E10FF11D35
S113035080810E94A9001150F6CF2A960FB6F89416
S1130360DEBF0FBECDBFDF91CF911F91FF90EF9005
S1130370DF90CF90BF90AF907F906F905F904F9041
S11303800895CF932091A8003091A900C4E1C29FA1
S1130390C001C39F900D112488539F4F0E944006B3
S11303A0883019F560E081E00E943A012091A800AC
S11303B03091A900C29FC001C39F900D112488539E
S11303C09F4F0E9427018CE690E00E9427018091B4
S11303D0A8009091A90001969093A9008093A80089
S11303E08091AA008F5F8093AA00CF9108950E9404
S11303F07F030E9409010E94B6050E949804789424
S11304000E94D6058FE296E00E94D80560E080E065
S11304100E943A0180E690E00E9427016AE080E0B1
S11304200E943A0185E690E00E94270110E084E1F1
S1130430F82E00E0F19EE0011124C853DF4F0E9422
S1130440C10168E080E00E943A016091AA0070E076
S113045080E090E00E9446018091AA00882379F30D
S1130460FE01E00FF11D8081882361F00E94B10438
S11304700F5F8FE99FE00197F1F700C00000109231
S1130480AB00EECF8091AB008111D9CF10820E94D6
S1130490B1046AE081E00E943A01CE010E94270182
S11304A08AE690E00E94270181E08093AB001F5F01
S11304B08091AA0081508093AA00BBCF0E94F701CB
S11304C01F920F920FB60F9211242F933F934F93C5
S11304D05F936F937F938F939F93AF93BF93EF93A8
S11304E0FF93E091AC00F091AD00309709F00995CD
S11304F0FF91EF91BF91AF919F918F917F916F91F8
S11305005F914F913F912F910F900FBE0F901F90CD
S11305101895982F9695969596958770613009F45D
S11305204DC020F0623009F497C0E7C0913031F13A
S1130530A8F0923099F1933009F0DFC041B321E083
S113054030E0B90102C0660F771F8A95E2F7CB014C
S1130550942F982B91BB92B380957CC04AB321E031
S113056030E0B90102C0660F771F8A95E2F7CB012C
S1130570942F982B9ABB9BB3809547C047B321E037
S113058030E0B90102C0660F771F8A95E2F7CB010C
S1130590942F982B97BB98B3809548C044B321E01F
S11305A030E0B90102C0660F771F8A95E2F7CB01EC
S11305B0942F982B94BB95B3809549C0913039F111
S11305C0A8F09230A9F1933009F097C041B321E02B
S11305D030E0B90102C0660F771F8A95E2F7CB01BC
S11305E08095942F982391BB92B334C04AB321E0F1
S11305F030E0B90102C0660F771F8A95E2F7CB019C
S11306008095942F98239ABB9BB389234EC047B3FC
S113061021E030E0B90102C0660F771F8A95E2F746
S1130620CB018095942F982397BB98B3892350C00E
S113063044B321E030E0B90102C0660F771F8A9508
S1130640E2F7CB018095942F982394BB95B389232B
S113065085BB2CC089234FC0913051F1B0F092304A
S1130660C9F1933009F049C041B321E030E0B90148
S113067002C0660F771F8A95E2F7CB01962F9095FB
S1130680942391BB92B3892B36C04AB321E030E066
S1130690B90102C0660F771F8A95E2F7CB01962F46
S11306A0909594239ABB9BB3892B8BBB80E00895D0
S11306B047B321E030E0B90102C0660F771F8A9585
S11306C0E2F7CB01962F9095942397BB98B3892B8F
S11306D088BBECCF44B321E030E0B90102C0660F1F
S11306E0771F8A95E2F7CB01962F9095942394BBBC
S11306F095B3892BADCF82BBD9CF81E008950F93F9
S11307001F93CF9300E710E0C0E0F80161918F01DF
S11307108C2F0E948902CF5FC032B9F7CF911F910D
S11307200F910895982F96959695969587706623C0
S1130730D9F1613009F079C09130F1F088F092304C
S113074039F1933009F073C042B321E030E0B901CC
S113075002C0660F771F8A95E2F7CB01842B63C032
S11307604BB321E030E0B90102C0660F771F8A95D0
S1130770E2F7CB01842B38C048B321E030E0B90163
S113078002C0660F771F8A95E2F7CB01842B3AC02B
S113079045B321E030E0B90102C0660F771F8A95A6
S11307A0E2F7CB01842B3CC0913001F188F0923008
S11307B059F19330E1F542B321E030E0B90102C0D0
S11307C0660F771F8A95E2F7CB01809584232BC0AF
S11307D04BB321E030E0B90102C0660F771F8A9560
S11307E0E2F7CB01809584238BBB1BC048B321E087
S11307F030E0B90102C0660F771F8A95E2F7CB019A
S11308008095842388BB0DC045B321E030E0B90155
S113081002C0660F771F8A95E2F7CB018095842387
S113082085BB80E0089582BBFCCF83E0089581E01E
S113083008951F920F920FB60F9211242F933F9396
S11308404F935F936F937F938F939F93AF93BF93D4
S1130850EF93FF93E091B200F091B300309709F069
S11308600995FF91EF91BF91AF919F918F917F91E6
S11308706F915F914F913F912F910F900FBE0F9009
S11308801F9018951F920F920FB60F9211242F9359
S11308903F934F935F936F937F938F939F93AF9304
S11308A0BF93EF93FF93E091B000F091B1003097C4
S11308B009F00995FF91EF91BF91AF919F918F91AD
S11308C07F916F915F914F913F912F910F900FBE48
S11308D00F901F9018951F920F920FB60F9211242C
S11308E02F933F934F935F936F937F938F939F9334
S11308F0AF93BF93EF93FF93E091AE00F091AF00FD
S1130900309709F00995FF91EF91BF91AF919F91B5
S11309108F917F916F915F914F913F912F910F90A4
S11309200FBE0F901F901895689869987098089555
S113093060E08DE00E94890261E08EE00E948902FD
S113094060E08CE00E94890260E08FE00E948902EE
S113095061E08CE00E9492036C9A0E9494046E9A67
S11309600895CF93C82F60E08CE00E949203CFB922
S1130970779BFECF8FB161E08CE0CF910C94920312
S11309801F920F920FB60F9211242F933F934F9300
S11309905F936F937F938F939F93AF93BF93EF93E3
S11309A0FF93E091B400F091B500309709F00995F8
S11309B0FF91EF91BF91AF919F918F917F916F9133
S11309C05F914F913F912F910F900FBE0F901F9009
S11309D018951F920F920FB60F9211242F933F93E5
S11309E04F935F936F937F938F939F93AF93BF9333
S11309F0EF93FF93E091BE00F091BF00309709F0B0
S1130A000995FF91EF91BF91AF919F918F917F9144
S1130A106F915F914F913F912F910F900FBE0F9067
S1130A201F9018951F920F920FB60F9211242F93B7
S1130A303F934F935F936F937F938F939F93AF9362
S1130A40BF93EF93FF93E091BC00F091BD0030970A
S1130A5009F00995FF91EF91BF91AF919F918F910B
S1130A607F916F915F914F913F912F910F900FBEA6
S1130A700F901F9018951F920F920FB60F9211248A
S1130A802F933F934F935F936F937F938F939F9392
S1130A90AF93BF93EF93FF93E091BA00F091BB0043
S1130AA0309709F00995FF91EF91BF91AF919F9114
S1130AB08F917F916F915F914F913F912F910F9003
S1130AC00FBE0F901F9018951F920F920FB60F92A2
S1130AD011242F933F934F935F936F937F938F933F
S1130AE09F93AF93BF93EF93FF93E091B800F0917E
S1130AF0B900309709F00995FF91EF91BF91AF913B
S1130B009F918F917F916F915F914F913F912F9121
S1130B100F900FBE0F901F9018951F920F920FB653
S1130B200F9211242F933F934F935F936F937F936F
S1130B308F939F93AF93BF93EF93FF93E091B6008E
S1130B40F091B700309709F00995FF91EF91BF91AB
S1130B50AF919F918F917F916F915F914F913F9151
S1130B602F910F900FBE0F901F90189510BC87E621
S1130B7089B980919000813041F028F0823031F4BD
S1130B8088E18AB903C0539A01C0549A80B584603D
S1130B9080BD80B5826080BD80B58F7D80BD80B50D
S1130BA08F7E80BD80B5877F80BD0895579A089554
S1130BB09093C6008093C50008951F920F920FB6BC
S1130BC00F9211242F933F934F935F936F937F93CF
S1130BD08F939F93AF93BF93EF93FF93E091C500DF
S1130BE0F091C600309709F00995FF91EF91BF91FC
S1130BF0AF919F918F917F916F915F914F913F91B1
S1130C002F910F900FBE0F901F9018951F920F9267
S1130C100FB60F9211242F933F934F935F936F93CB
S1130C207F938F939F93AF93BF93EF93FF93E09141
S1130C30C300F091C400309709F00995FF91EF913A
S1130C40BF91AF919F918F917F916F915F914F91E0
S1130C503F912F910F900FBE0F901F901895809188
S1130C60C2009CB1E82FF0E0EC55FE4F90838F5FFB
S1130C708093C2008091C7008F5F8093C70008955E
S1130C80AC018091C700882341F19091C100E92F04
S1130C90F0E0EC55FE4F80819F5F8D3059F4109247
S1130CA0C0009093C1008091C70081508093C70019
S1130CB088E008952091C0008081FA01E20FF11DBF
S1130CC080832F5F2093C0009093C1008091C70060
S1130CD081508093C70089E0089580E00895052E2F
S1130CE097FB1EF400940E94860657FD07D00E94CD
S1130CF08E0607FC03D04EF40C948606509540955E
S1130D00309521953F4F4F4F5F4F089590958095B3
S1130D10709561957F4F8F4F9F4F0895A1E21A2ED2
S1130D20AA1BBB1BFD010DC0AA1FBB1FEE1FFF1F8B
S1130D30A217B307E407F50720F0A21BB30BE40BDB
S1130D40F50B661F771F881F991F1A9469F7609522
S1130D507095809590959B01AC01BD01CF010895DC
S1070D60F894FFCF31
S1130D64726563640073656E740020202020200083
S1130D740100000000010101000000000000000067
S1130D840000020202020000000000000000000053
S1130D940200010200000300000000000000000043
S10B0DA4000000000000000043
S9030000FC
