:100000000C942A000C9419040C9442040C946B0474
:100010000C9447000C9447000C9447000C94470044
:100020000C9447000C9447000C9447000C94470034
:100030000C9447000C9447000C9447000C94470024
:100040000C9443020C9447000C9447000C94470016
:100050000C94470011241FBECFE5D8E0DEBFCDBF12
:1000600010E0A0E6B0E0ECE2F9E002C005900D92ED
:10007000A83AB107D9F720E0A8EAB0E001C01D9284
:10008000A33BB207E1F70E943A020C9494040C944B
:1000900000001F93CF93DF936BE670E080916200C6
:1000A0000E941F0263E670E0809161000E941F02BF
:1000B0006091AA008091A9000E94010280916200D3
:1000C0000E94FF0163E180E00E94010280916200D2
:1000D0000E94FF016091600080E00E940102809117
:1000E00061000E94FF010E94E5008D3351F4809170
:1000F0006000811106C082E18093600081E08093FE
:10010000A800C3E0D2E111E08091A800882309F49F
:1001100048C06091AA008091A9000E9401028091CC
:1001200062000E94FF0163E180E00E940102809171
:1001300062000E94FF016091600080E00E94010265
:10014000809161000E94FF010E94E5008D3349F417
:100150008091600081110DC0D09360001093A800C1
:1001600008C0893331F48091A900811102C0C09385
:10017000A900909160008091AA0022E0280F92319E
:1001800010F4822FFACF8093AA002FEF80E792E03D
:10019000215080409040E1F700C000000E9415020D
:1001A000B3CFDF91CF911F91089561E08BE10E9461
:1001B000750361E08DE10E94750361E08EE10E94AC
:1001C000750361E08FE10C947503DF92EF92FF926B
:1001D0000F931F93CF93DF9393E7E92E90E0F92ECF
:1001E000CBE1D4E560E08C2F0E94750300E010E0C5
:1001F00082E1D82ED00E8D2D0E94FC03811109C002
:10020000F701E00FF11FD0818D2D0E94FC038823A0
:10021000D9F30F5F1F4F0430110551F761E08C2FA8
:100220000E947503CF5F84E0E80EF11CC032D1F666
:100230008D2FDF91CF911F910F91FF90EF90DF9065
:100240000895CF93C82F60E083E00E9475036C2F60
:10025000661F6627661F8CE00E947503C6FB662733
:1002600060F98AE00E947503C5FB662760F989E0A2
:100270000E947503C4FB662760F988E00E9475033D
:1002800061E082E00E9475038FEC97E00197F1F73F
:1002900000C0000060E082E00E9475038FEC97E0F0
:1002A0000197F1F700C00000C3FB662760F98CE0FE
:1002B0000E947503C2FB662760F98AE00E947503FD
:1002C000C1FB662760F989E00E9475036C2F61709D
:1002D00088E00E94750361E082E00E9475038FEC64
:1002E00097E00197F1F700C0000060E082E00E9413
:1002F00075038FEC97E00197F1F700C00000CF91F4
:100300000895CF93C82F61E083E00E9475036C2F9E
:10031000661F6627661F8CE00E947503C6FB662772
:1003200060F98AE00E947503C5FB662760F989E0E1
:100330000E947503C4FB662760F988E00E9475037C
:1003400061E082E00E9475038FEC97E00197F1F77E
:1003500000C0000060E082E00E9475038FEC97E02F
:100360000197F1F700C00000C3FB662760F98CE03D
:100370000E947503C2FB662760F98AE00E9475033C
:10038000C1FB662760F989E00E9475036C2F6170DC
:1003900088E00E94750361E082E00E9475038FECA3
:1003A00097E00197F1F700C0000060E082E00E9452
:1003B00075038FEC97E00197F1F700C00000CF9133
:1003C00008952FE788E391E0215080409040E1F7C5
:1003D00000C0000082E00E94210188E20E94210109
:1003E0008CE00E94210181E00E9421018FEC97E0C6
:1003F0000197F1F700C0000086E00C9421010C94F5
:100400008101982F862F911102C080580BC0913026
:1004100011F4805407C0923011F48C5603C093300D
:1004200019F48C520C942101089581E00E9421015D
:100430008FEC97E00197F1F700C0000008950F934B
:100440001F93CF93DF938B01880F880F880F805CF9
:100450000E942101E801085F1F4F89910E948101DC
:10046000C017D107D1F780E8DF91CF911F910F918D
:100470000C9421010E9462030E94E1010E94D500B8
:100480000E944900FDCF1F920F920FB60F921124C8
:100490002F933F934F935F936F937F938F939F938C
:1004A000AF93BF93EF93FF93E091AB00F091AC005B
:1004B000309709F00995FF91EF91BF91AF919F910E
:1004C0008F917F916F915F914F913F912F910F90FD
:1004D0000FBE0F901F901895982F9695969596950C
:1004E0008770613009F44DC020F0623009F497C084
:1004F000E7C0913031F1A8F0923099F1933009F0D2
:10050000DFC041B321E030E0B90102C0660F771FC0
:100510008A95E2F7CB01942F982B91BB92B38095EB
:100520007CC04AB321E030E0B90102C0660F771FFA
:100530008A95E2F7CB01942F982B9ABB9BB38095B9
:1005400047C047B321E030E0B90102C0660F771F12
:100550008A95E2F7CB01942F982B97BB98B380959F
:1005600048C044B321E030E0B90102C0660F771FF4
:100570008A95E2F7CB01942F982B94BB95B3809585
:1005800049C0913039F1A8F09230A9F1933009F0C7
:1005900097C041B321E030E0B90102C0660F771F78
:1005A0008A95E2F7CB018095942F982391BB92B363
:1005B00034C04AB321E030E0B90102C0660F771FB2
:1005C0008A95E2F7CB018095942F98239ABB9BB331
:1005D00089234EC047B321E030E0B90102C0660F65
:1005E000771F8A95E2F7CB018095942F982397BBCC
:1005F00098B3892350C044B321E030E0B90102C070
:10060000660F771F8A95E2F7CB018095942F982388
:1006100094BB95B3892385BB2CC089234FC09130EF
:1006200051F1B0F09230C9F1933009F049C041B3B3
:1006300021E030E0B90102C0660F771F8A95E2F72A
:10064000CB01962F9095942391BB92B3892B36C002
:100650004AB321E030E0B90102C0660F771F8A95E6
:10066000E2F7CB01962F909594239ABB9BB3892BED
:100670008BBB80E0089547B321E030E0B90102C0B0
:10068000660F771F8A95E2F7CB01962F90959423FA
:1006900097BB98B3892B88BBECCF44B321E030E003
:1006A000B90102C0660F771F8A95E2F7CB01962F3A
:1006B0009095942394BB95B3892BADCF82BBD9CFB2
:1006C00081E008950F931F93CF9307E810E0C0E0F7
:1006D000F80161918F018C2F0E946C02CF5FC032B4
:1006E000B9F7CF911F910F910895982F96959695F0
:1006F000969587706623D9F1613009F079C0913001
:10070000F1F088F0923039F1933009F073C042B3C0
:1007100021E030E0B90102C0660F771F8A95E2F749
:10072000CB01842B63C04BB321E030E0B90102C0A0
:10073000660F771F8A95E2F7CB01842B38C048B348
:1007400021E030E0B90102C0660F771F8A95E2F719
:10075000CB01842B3AC045B321E030E0B90102C09F
:10076000660F771F8A95E2F7CB01842B3CC091304E
:1007700001F188F0923059F19330E1F542B321E074
:1007800030E0B90102C0660F771F8A95E2F7CB010E
:10079000809584232BC04BB321E030E0B90102C027
:1007A000660F771F8A95E2F7CB01809584238BBB78
:1007B0001BC048B321E030E0B90102C0660F771FCB
:1007C0008A95E2F7CB018095842388BB0DC045B3A1
:1007D00021E030E0B90102C0660F771F8A95E2F789
:1007E000CB018095842385BB80E0089582BBFCCF3C
:1007F00083E0089581E00895282F277086958695D7
:100800008695813049F030F0823041F0833079F4C0
:1008100080B305C089B303C086B301C083B390E041
:1008200002C0959587952A95E2F78170089580E03A
:1008300008951F920F920FB60F9211242F933F939A
:100840004F935F936F937F938F939F93AF93BF93D8
:10085000EF93FF93E091B100F091B200309709F06F
:100860000995FF91EF91BF91AF919F918F917F91EA
:100870006F915F914F913F912F910F900FBE0F900D
:100880001F9018951F920F920FB60F9211242F935D
:100890003F934F935F936F937F938F939F93AF9308
:1008A000BF93EF93FF93E091AF00F091B0003097CA
:1008B00009F00995FF91EF91BF91AF919F918F91B1
:1008C0007F916F915F914F913F912F910F900FBE4C
:1008D0000F901F9018951F920F920FB60F92112430
:1008E0002F933F934F935F936F937F938F939F9338
:1008F000AF93BF93EF93FF93E091AD00F091AE0003
:10090000309709F00995FF91EF91BF91AF919F91B9
:100910008F917F916F915F914F913F912F910F90A8
:0C0920000FBE0F901F901895F894FFCFA9
:10092C00010201000E1F1F1F0E0000040A041F0409
:10093C000A0A116331343778787878303235383D9B
:10094C003336392B2D2A2F01010000000000000046
:10095C000000000000000000000202020200000083
:08096C00000000000000000083
:00000001FF
