S00B00004E54492E737265632E
S11300000C946B000C9451030C947A030C94A3038A
S11300100C9488000C9488000C94F2060C948800CC
S11300200C94C9060C94A0060C9477060C944E0606
S11300300C9425060C941B070C9488000C9444071C
S11300400C9498010C9488000C9488000C948800FB
S11300500C94880007634236B79BD8A71A396856B0
S113006018AEBAAB558C1D3CB7CC5763BD6DEDFDD6
S1130070753EF6177231BF000000803F0800000093
S1130080BE922449123EABAAAA2ABECDCCCC4C3E89
S113009000000080BEABAAAAAA3E00000000BF0078
S11300A00000803F0000000000084178D3BB438774
S11300B0D1133D190E3CC3BD4282AD2B3E68EC8288
S11300C076BED98FE1A93E4C80EFFFBE01C4FF7F0D
S11300D03F000000000011241FBECFE5D8E0DEBFC2
S11300E0CDBF10E0A0E6B0E0EEECFBE102C005906D
S11300F00D92AA3DB107D9F720E0AAEDB0E001C006
S11301001D92A23FB207E1F70E948F010C94E50D06
S11301100C940000CF93C82F60E083E00E94CA02D1
S11301206C2F661F6627661F8CE00E94CA02C6FBFE
S1130130662760F98AE00E94CA02C5FB662760F957
S113014089E00E94CA02C4FB662760F988E00E9425
S1130150CA0261E082E00E94CA028FE99FE001972F
S1130160F1F700C0000060E082E00E94CA028FE95B
S11301709FE00197F1F700C00000C3FB662760F918
S11301808CE00E94CA02C2FB662760F98AE00E94E2
S1130190CA02C1FB662760F989E00E94CA026C2F7B
S11301A0617088E00E94CA0261E082E00E94CA0293
S11301B08FE99FE00197F1F700C0000060E082E062
S11301C00E94CA028FE99FE00197F1F700C0000086
S11301D0CF910895CF93C82F61E083E00E94CA02B3
S11301E06C2F661F6627661F8CE00E94CA02C6FB3E
S11301F0662760F98AE00E94CA02C5FB662760F997
S113020089E00E94CA02C4FB662760F988E00E9464
S1130210CA0261E082E00E94CA028FE99FE001976E
S1130220F1F700C0000060E082E00E94CA028FE99A
S11302309FE00197F1F700C00000C3FB662760F957
S11302408CE00E94CA02C2FB662760F98AE00E9421
S1130250CA02C1FB662760F989E00E94CA026C2FBA
S1130260617088E00E94CA0261E082E00E94CA02D2
S11302708FE99FE00197F1F700C0000060E082E0A1
S11302800E94CA028FE99FE00197F1F700C00000C5
S1130290CF9108952FEF80E792E021508040904065
S11302A0E1F700C0000082E00E948A0088E20E9418
S11302B08A008CE00E948A0081E00E948A008FE913
S11302C09FE00197F1F700C0000086E00C948A00DB
S11302D00F931F93CF938C01C0E0F801EC0FF11D35
S11302E08081882321F00E94EA00CF5FF6CFCF916E
S11302F01F910F910895982F862F911102C0805855
S11303000BC0913011F4805407C0923011F48C5614
S113031003C0933019F48C520C948A0008950E94FF
S1130320B7020E944A010E94470580E090E00895C8
S11303301F920F920FB60F9211242F933F934F9356
S11303405F936F937F938F939F93AF93BF93EF9339
S1130350FF93E091DA00F091DB00309709F0099502
S1130360FF91EF91BF91AF919F918F917F916F9189
S11303705F914F913F912F910F900FBE0F901F905F
S11303801895982F9695969596958770613009F4EF
S11303904DC020F0623009F497C0E7C0913031F1CC
S11303A0A8F0923099F1933009F0DFC041B321E015
S11303B030E0B90102C0660F771F8A95E2F7CB01DE
S11303C0942F982B91BB92B380957CC04AB321E0C3
S11303D030E0B90102C0660F771F8A95E2F7CB01BE
S11303E0942F982B9ABB9BB3809547C047B321E0C9
S11303F030E0B90102C0660F771F8A95E2F7CB019E
S1130400942F982B97BB98B3809548C044B321E0B0
S113041030E0B90102C0660F771F8A95E2F7CB017D
S1130420942F982B94BB95B3809549C0913039F1A2
S1130430A8F09230A9F1933009F097C041B321E0BC
S113044030E0B90102C0660F771F8A95E2F7CB014D
S11304508095942F982391BB92B334C04AB321E082
S113046030E0B90102C0660F771F8A95E2F7CB012D
S11304708095942F98239ABB9BB389234EC047B38E
S113048021E030E0B90102C0660F771F8A95E2F7D8
S1130490CB018095942F982397BB98B3892350C0A0
S11304A044B321E030E0B90102C0660F771F8A959A
S11304B0E2F7CB018095942F982394BB95B38923BD
S11304C085BB2CC089234FC0913051F1B0F09230DC
S11304D0C9F1933009F049C041B321E030E0B901DA
S11304E002C0660F771F8A95E2F7CB01962F90958D
S11304F0942391BB92B3892B36C04AB321E030E0F8
S1130500B90102C0660F771F8A95E2F7CB01962FD7
S1130510909594239ABB9BB3892B8BBB80E0089561
S113052047B321E030E0B90102C0660F771F8A9516
S1130530E2F7CB01962F9095942397BB98B3892B20
S113054088BBECCF44B321E030E0B90102C0660FB0
S1130550771F8A95E2F7CB01962F9095942394BB4D
S113056095B3892BADCF82BBD9CF81E008950F938A
S11305701F93CF930EE610E0C0E0F80161918F0164
S11305808C2F0E94C101CF5FC032B9F7CF911F9168
S11305900F910895982F9695969596958770662352
S11305A0D9F1613009F079C09130F1F088F09230DE
S11305B039F1933009F073C042B321E030E0B9015E
S11305C002C0660F771F8A95E2F7CB01842B63C0C4
S11305D04BB321E030E0B90102C0660F771F8A9562
S11305E0E2F7CB01842B38C048B321E030E0B901F5
S11305F002C0660F771F8A95E2F7CB01842B3AC0BD
S113060045B321E030E0B90102C0660F771F8A9537
S1130610E2F7CB01842B3CC0913001F188F0923099
S113062059F19330E1F542B321E030E0B90102C061
S1130630660F771F8A95E2F7CB01809584232BC040
S11306404BB321E030E0B90102C0660F771F8A95F1
S1130650E2F7CB01809584238BBB1BC048B321E018
S113066030E0B90102C0660F771F8A95E2F7CB012B
S11306708095842388BB0DC045B321E030E0B901E7
S113068002C0660F771F8A95E2F7CB018095842319
S113069085BB80E0089582BBFCCF83E0089581E0B0
S11306A008951F920F920FB60F9211242F933F9328
S11306B04F935F936F937F938F939F93AF93BF9366
S11306C0EF93FF93E091E000F091E100309709F09F
S11306D00995FF91EF91BF91AF919F918F917F9178
S11306E06F915F914F913F912F910F900FBE0F909B
S11306F01F9018951F920F920FB60F9211242F93EB
S11307003F934F935F936F937F938F939F93AF9395
S1130710BF93EF93FF93E091DE00F091DF003097F9
S113072009F00995FF91EF91BF91AF919F918F913E
S11307307F916F915F914F913F912F910F900FBED9
S11307400F901F9018951F920F920FB60F921124BD
S11307502F933F934F935F936F937F938F939F93C5
S1130760AF93BF93EF93FF93E091DC00F091DD0032
S1130770309709F00995FF91EF91BF91AF919F9147
S11307808F917F916F915F914F913F912F910F9036
S11307900FBE0F901F90189590E094B983B984E828
S11307A090E097BF86BF86B797B787FFFCCF0895C1
S11307B084EC90E097BF86BF86B797B787FFFCCFDE
S11307C083B194B1089584E890E097BF86BF86B75B
S11307D097B787FFFCCF83B194B1089512B811B8CD
S11307E061B172B16370772780E090E00E947B086A
S11307F09B01AC0160E070E080E890E40E9476091F
S11308009B01AC010E946E079B01AC0160E070E0AB
S113081080EC91E40E94DA070E944C0871B960B937
S113082082E090E093B982B984E090E097BF86BFFC
S1130830089584EA90E097BF86BF86B797B787FF8D
S1130840FCCF8FE39CE90197F1F700C0000081B170
S113085092B1982F987F81E0983009F480E0089550
S113086084EA90E097BF86BF86B797B787FFFCCF2F
S113087081B192B1887F803111F480E0089582E0E3
S11308800895611102C090E004C0613021F490E049
S1130890019694B983B984E890E097BF86BF86B780
S11308A097B787FFFCCF81B192B1887F883189F0F7
S11308B081B192B1887F803271F081B192B1887F29
S11308C0803459F081B192B1887F883441F087E057
S11308D0089583E0089584E0089585E0089586E00E
S11308E00895CF93DF93EC0161110EC00E94CC03F5
S11308F081B192B1887F883201F181B192B1887F50
S11309008033E9F08AE020C06130B1F4411103C0C2
S11309100E94D80304C0413019F40E94E303888381
S113092081B192B1887F803561F081B192B1887FC5
S1130930883549F08DE008C007C088E005C089E02B
S113094003C08BE001C08CE0DF91CF91089584E96E
S113095090E097BF86BF86B797B784FDFCCF089514
S1130960DF92EF92FF920F931F93CF93DF93D82ED2
S11309707B018A01E9010E94190481112FC060E002
S113098080ED0E944104833049F540E060E08D2D04
S113099090E00E947104883009F50E9430048111AE
S11309A01DC061E080ED0E9441048530B9F440E04F
S11309B061E0C7010E9471048B3081F440E061E082
S11309C0C8010E9471048B3049F441E061E0CE011A
S11309D00E9471048C3011F40E94A704DF91CF911E
S11309E01F910F91FF90EF90DF900895BF92CF92E7
S11309F0DF92EF92FF920F931F93CF93DF93B82E62
S1130A006B017A01E9010E941904811136C060E08A
S1130A1080ED0E944104833081F540E060E08B2D3D
S1130A2090E00E947104883041F50E9430048111E5
S1130A3024C061E080ED0E9441048530F1F440E07F
S1130A4061E0C6010E9471048B30B9F440E061E0BA
S1130A50C7010E9471048B3081F440E061E0CE0153
S1130A600E9471048B3049F441E061E0C8010E94A6
S1130A7071048C3011F40E94A704DF91CF911F916F
S1130A800F91FF90EF90DF90CF90BF900895CF9398
S1130A90DF93CDB7DEB7AC970FB6F894DEBF0FBEC9
S1130AA0CDBF0E94EE031CA61BA61AA619A618A663
S1130AB01FA21EA28091BA009091BB00A091BC001D
S1130AC08BA39CA3ADA38EE0E0E6F0E0DE01559697
S1130AD001900D928A95E1F780E5682E91E4792ED4
S1130AE06E0123E2C20ED11C2EE8A22E20E0B22E0B
S1130AF0CE0101967C0134EA832E30E0932E9E01D0
S1130B00265D3F4FAE01455D5F4FBE01645D7F4F83
S1130B1080E00E94B0049CA5892F82958F709F70FD
S1130B202AE0829F900D11249CA72BA5822F8295E9
S1130B308F702F703AE0839F200D11242BA78AA574
S1130B40382F32953F708F704AE0349F800D112406
S1130B508AA78D3028F4811176C08CE08AA773C0EF
S1130B606BA2DF92CF921F929F931F922F938AA51D
S1130B701F928F93BF92AF92FF92EF920E94FB0A53
S1130B8060E070E080E090E00E947B01C7010E9479
S1130B9068018E010A5D1F4F9E01295D3F4FAE0122
S1130BA0475D5F4FBE01685D7F4F83E00E94F6049E
S1130BB029A5822F82958F702F709AE0899F200D2E
S1130BC0112429A73FA1832F82958F703F704AE09B
S1130BD0849F300D11243FA34EA1842F82958F70E2
S1130BE04F709AE0899F400D11244EA358A5C70168
S1130BF0850F911D850F911DFC01329785898F9377
S1130C0084898F931F924F931F923F931F922F9328
S1130C109F928F92FF92EF920E94FB0A60E070E035
S1130C2081E090E00E947B01C7010E94680160E0BE
S1130C3070E082E090E00E947B010FB6F894DEBF82
S1130C400FBECDBF5CCF7BA28CCF1F920F920FB68D
S1130C500F9211242F933F934F935F936F937F933E
S1130C608F939F93AF93BF93EF93FF93E091E20031
S1130C70F091E300309709F00995FF91EF91BF914E
S1130C80AF919F918F917F916F915F914F913F9120
S1130C902F910F900FBE0F901F9018951F920F92D7
S1130CA00FB60F9211242F933F934F935F936F933B
S1130CB07F938F939F93AF93BF93EF93FF93E091B1
S1130CC0EC00F091ED00309709F00995FF91EF9158
S1130CD0BF91AF919F918F917F916F915F914F9150
S1130CE03F912F910F900FBE0F901F9018951F9258
S1130CF00F920FB60F9211242F933F934F935F934C
S1130D006F937F938F939F93AF93BF93EF93FF93CF
S1130D10E091EA00F091EB00309709F00995FF911A
S1130D20EF91BF91AF919F918F917F916F915F915F
S1130D304F913F912F910F900FBE0F901F901895D8
S1130D401F920F920FB60F9211242F933F934F933C
S1130D505F936F937F938F939F93AF93BF93EF931F
S1130D60FF93E091E800F091E900309709F00995CC
S1130D70FF91EF91BF91AF919F918F917F916F916F
S1130D805F914F913F912F910F900FBE0F901F9045
S1130D9018951F920F920FB60F9211242F933F9321
S1130DA04F935F936F937F938F939F93AF93BF936F
S1130DB0EF93FF93E091E600F091E700309709F09C
S1130DC00995FF91EF91BF91AF919F918F917F9181
S1130DD06F915F914F913F912F910F900FBE0F90A4
S1130DE01F9018951F920F920FB60F9211242F93F4
S1130DF03F934F935F936F937F938F939F93AF939F
S1130E00BF93EF93FF93E091E400F091E5003097F6
S1130E1009F00995FF91EF91BF91AF919F918F9147
S1130E207F916F915F914F913F912F910F900FBEE2
S1130E300F901F9018951F920F920FB60F921124C6
S1130E402F933F934F935F936F937F938F939F93CE
S1130E50AF93BF93EF93FF93E091F000F091F10013
S1130E60309709F00995FF91EF91BF91AF919F9150
S1130E708F917F916F915F914F913F912F910F903F
S1130E800FBE0F901F9018951F920F920FB60F92DE
S1130E9011242F933F934F935F936F937F938F937B
S1130EA09F93AF93BF93EF93FF93E091EE00F09184
S1130EB0EF00309709F00995FF91EF91BF91AF9141
S1130EC09F918F917F916F915F914F913F912F915E
S1130ED00F900FBE0F901F9018955058BB27AA274C
S1130EE00E9485070C94CF080E94C10838F00E9424
S1130EF0C80820F039F49F3F19F426F40C94BE0876
S1130F000EF4E095E7FB0C94B808E92F0E94E00882
S1130F1058F3BA17620773078407950720F079F42A
S1130F20A6F50C9402090EF4E0950B2EBA2FA02D11
S1130F300B01B90190010C01CA01A0011124FF2782
S1130F40591B99F0593F50F4503E68F11A16F0407D
S1130F50A22F232F342F4427585FF3CF469537957C
S1130F602795A795F0405395C9F77EF41F16BA0B41
S1130F70620B730B840BBAF09150A1F0FF0FBB1FEF
S1130F80661F771F881FC2F70EC0BA0F621F731F38
S1130F90841F48F4879577956795B795F7959E3F95
S1130FA008F0B0CF9395880F08F09927EE0F979526
S1130FB0879508950E94EE070C94CF080E94C808F4
S1130FC058F00E94C10840F029F45F3F29F00C94C6
S1130FD0B80851110C9403090C94BE080E94E0084F
S1130FE068F39923B1F3552391F3951B550BBB2754
S1130FF0AA2762177307840738F09F5F5F4F220F99
S1131000331F441FAA1FA9F335D00E2E3AF0E0E88F
S113101032D091505040E695001CCAF72BD0FE2FD9
S113102029D0660F771F881FBB1F2617370748076D
S1131030AB07B0E809F0BB0B802DBF01FF27935825
S11310405F4F3AF09E3F510578F00C94B8080C9429
S113105003095F3FE4F3983ED4F38695779567954B
S1131060B795F7959F5FC9F7880F911D969587955A
S113107097F90895E1E0660F771F881FBB1F621779
S113108073078407BA0720F0621B730B840BBA0B37
S1131090EE1F88F7E09508950E94E80888F09F57AE
S11310A098F0B92F9927B751B0F0E1F0660F771F88
S11310B0881F991F1AF0BA95C9F714C0B13091F07E
S11310C00E940209B1E008950C940209672F782F59
S11310D08827B85F39F0B93FCCF386957795679543
S11310E0B395D9F73EF490958095709561957F4FAF
S11310F08F4F9F4F0895E89409C097FB3EF4909555
S11311008095709561957F4F8F4F9F4F9923A9F0DC
S1131110F92F96E9BB279395F6958795779567956B
S1131120B795F111F8CFFAF4BB0F11F460FF1BC0AF
S11311306F5F7F4F8F4F9F4F16C0882311F096E942
S113114011C0772321F09EE8872F762F05C06623F0
S113115071F096E8862F70E060E02AF09A95660FA9
S1131160771F881FDAF7880F9695879597F9089562
S113117097F99F6780E870E060E008959FEF80EC46
S1131180089500240A9416161706180609060895E9
S113119000240A9412161306140605060895092E4F
S11311A00394000C11F4882352F0BB0F40F4BF2BBE
S11311B011F460FF04C06F5F7F4F8F4F9F4F0895FE
S11311C057FD9058440F551F59F05F3F71F04795F4
S11311D0880F97FB991F61F09F3F79F087950895D9
S11311E0121613061406551FF2CF4695F1DF08C0F8
S11311F0161617061806991FF1CF86957105610515
S113120008940895E894BB2766277727CB0197F9BC
S113121008950E941C090C94CF080E94C10838F05C
S11312200E94C80820F0952311F00C94B8080C947F
S1131230BE0811240C9403090E94E00870F3959FE2
S1131240C1F3950F50E0551F629FF001729FBB27B9
S1131250F00DB11D639FAA27F00DB11DAA1F649F55
S11312606627B00DA11D661F829F2227B00DA11D08
S1131270621F739FB00DA11D621F839FA00D611D8E
S1131280221F749F3327A00D611D231F849F600DAF
S1131290211D822F762F6A2F11249F5750409AF0D8
S11312A0F1F088234AF0EE0FFF1FBB1F661F771F64
S11312B0881F91505040A9F79E3F510580F00C942F
S11312C0B8080C9403095F3FE4F3983ED4F3869581
S11312D077956795B795F795E7959F5FC1F7FE2BCF
S11312E0880F911D9695879597F90895FA01EE0F49
S11312F0FF1F309621053105A1F16115710561F4D7
S11313008038BFE39B0749F168949038810561F008
S11313108038BFEF9B0741F099234AF5FF3FE10571
S11313203105210519F1E8940894E795D901AA2318
S113133029F4AB2FBE2FF85FD0F310C0FF5F70F419
S1131340A695E0F7F73950F019F0FF3A38F49F7793
S11313509F930DD00F9007FC9058089546F00C947D
S1131360BE0860E070E080E89FE308954FE79F7750
S11313705F934F933F932F930E94710A2F913F9154
S11313804F915F910E9409090C94CE0929F416F03B
S11313900C94B8080C9402090C94BE080E94E80846
S11313A0A8F39638A0F707F80F92E8942BE33AEAEB
S11313B048EB5FE70E941F090F920F920F924DB7FF
S11313C05EB70F920E94B90AE4E5F0E00E94000AB9
S11313D04F915F91EF91FF91E595EE1FFF1F49F04B
S11313E0FE57E0684427EE0F441FFA95E1F7419554
S11313F0550B0E94330A0F9007FE0C94270A089598
S1131400DF93CF931F930F93FF92EF92DF927B01B1
S11314108C01689406C0DA2EEF010E941C09FE01BB
S1131420E894A5912591359145915591A6F3EF0145
S11314300E948507FE019701A801DA9469F7DF90FD
S1131440EF90FF900F911F91CF91DF9108959B0131
S1131450AC0160E070E080E89FE30C94DA070C9440
S1131460B8080C94ED0A0E94E808D8F39923C9F34C
S1131470940F511DA3F39150504094F059F08823D8
S113148032F0660F771F881F91505040C1F79E3F7E
S113149051052CF7880F911D9695879597F9089516
S11314A05F3FACF0983E9CF0BB2786957795679597
S11314B0B79508F4B1609395C1F7BB0F58F711F4D1
S11314C060FFE8CF6F5F7F4F8F4F9F4FE3CF0C9448
S11314D0030916F00C94ED0A0C94BE0868940C945D
S11314E0B8080E94E808A8F39923C1F3AEF3DF9388
S11314F0CF931F930F93FF92C92FDD2788232AF0E0
S11315002197660F771F881FDAF720E030E040E864
S11315105FEB9FE3883920F0803E38F021968F7787
S11315200E946E07ECE7F0E004C00E946E07E9EA4F
S1131530F0E00E94000A8B01BE01EC01FB2E6F5704
S113154071097595771F880B990B0E947D0828E116
S113155032E741E35FE30E941C09AF2D9801AE011D
S1131560FF900F911F91CF91DF910E9485070C94FA
S1131570CF08FA01DC01AA0FBB1F9B01AC01BF57C6
S113158028F4222733274427507820C0B75190F4F9
S1131590AB2F0024469537952795011CA395D2F3CC
S11315A0002071F0220F331F441FB395DAF30ED0DD
S11315B00C946D0761307105A0E88A07B94630F4D0
S11315C09B01AC016627772788279078309621F015
S11315D0208331834283538308959F3F31F0915098
S11315E020F4879577956795B795880F911D969503
S11315F0879597F90895AEE0B0E0E1E0FBE00C9444
S1131600BC0D0D891E8986E08C831A8309838FEFB4
S11316109FE79E838D83AE01475E5F4F6F89788D10
S1131620CE0101960E941D0BEF81F885E00FF11F9A
S113163010822E96E4E00C94D80DABE0B0E0E3E227
S1131640FBE00C94AE0D6C017B018A01FC01178256
S11316501682838181FFCCC1CE0101963C01F60143
S11316609381F70193FD859193FF81917F018823F5
S113167009F4BAC1853239F493FD859193FF8191C0
S11316807F01853229F4B60190E00E94140DE7CF62
S1131690912C212C312CFFE1F315D8F08B3279F009
S11316A038F4803279F08332A1F4232D20611DC0F7
S11316B08D3261F0803369F4232D216016C0832DAF
S11316C08260382EE32DE4603E2E2AC0F32DF860AC
S11316D01DC037FC2DC020ED280F2A3040F08E327B
S11316E0B9F436FC81C1232D2064322E19C036FE94
S11316F006C08AE0989E200D1124922E11C0EAE0C3
S11317002E9E200D1124222EF32DF0623F2E08C0B0
S11317108C3621F4832D8068382E02C0883641F43B
S1131720F70193FD859193FF81917F018111B3CFDF
S1131730982F9F7D9554933028F40C5F1F4F9FE39F
S113174099830DC0833631F0833771F0833509F006
S113175059C021C0F801808189830E5F1F4F8824FE
S11317608394912C530113C02801F2E04F0E511CB5
S1131770F801A080B18036FE03C0692D70E002C07C
S11317806FEF7FEFC5010E94090D4C018201F32D1B
S1131790FF773F2E16C0280122E0420E511CF801AB
S11317A0A080B18036FE03C0692D70E002C06FEFE7
S11317B07FEFC5010E94FE0C4C01F32DF0683F2E13
S11317C0820133FC1BC0822D90E088169906B0F488
S11317D0B60180E290E00E94140D2A94F4CFF50142
S11317E037FC859137FE81915F01B60190E00E943C
S11317F0140D21102A9421E0821A91088114910475
S113180071F7E8C0843611F0893641F5F80137FEE6
S113181007C060817181828193810C5F1F4F08C072
S113182060817181072E000C880B990B0E5F1F4F8E
S1131830F32DFF763F2E97FF09C090958095709504
S113184061957F4F8F4F9F4FF0683F2E2AE030E025
S1131850A3010E94500D882E861845C0853731F4A7
S1131860232D2F7EB22E2AE030E025C0932D997FC0
S1131870B92E8F36C1F018F4883579F0B5C08037A9
S113188019F0883721F0B0C0E92FE061BE2EB4FE14
S11318900DC0FB2DF460BF2E09C034FE0AC0292FF1
S11318A02660B22E06C028E030E005C020E130E01A
S11318B002C020E132E0F801B7FE07C06081718107
S11318C0828193810C5F1F4F06C06081718180E02B
S11318D090E00E5F1F4FA3010E94500D882E8618C2
S11318E0FB2DFF773F2E36FE0DC0232D2E7FA22E1B
S11318F0891458F434FE0BC032FC09C0832D8E7E4B
S1131900A82E05C0B82CA32C03C0B82C01C0B92C38
S1131910A4FE0FC0FE01E80DF11D8081803321F487
S11319209A2D997EA92E09C0A2FE06C0B394B39441
S113193004C08A2D867809F0B394A3FC11C0A0FEDC
S113194006C0B21488F4280C922C9B180EC0B21452
S113195060F4B60180E290E00E94140DB394F7CFD6
S1131960B21418F42B1802C0982C212CA4FE10C019
S1131970B60180E390E00E94140DA2FE17C0A1FC02
S113198003C088E790E002C088E590E0B6010CC08F
S11319908A2D867859F0A1FE02C08BE201C080E254
S11319A0A7FC8DE2B60190E00E94140D891438F46E
S11319B0B60180E390E00E94140D9A94F7CF8A94C4
S11319C0F301E80DF11D8081B60190E00E94140D31
S11319D08110F5CF222009F442CEB60180E290E0D6
S11319E00E94140D2A94F6CFF6018681978102C0D5
S11319F08FEF9FEF2B96E2E10C94CA0DFC0105904A
S1131A00615070400110D8F7809590958E0F9F1FFC
S1131A100895FC016150704001900110D8F7809541
S1131A2090958E0F9F1F08950F931F93CF93DF936D
S1131A30FB01238121FD03C08FEF9FEF2CC022FF08
S1131A4016C046815781248135814217530744F4D7
S1131A50A081B1819D012F5F3F4F318320838C93FF
S1131A60268137812F5F3F4F3783268314C08B0134
S1131A70EC01FB010084F185E02D0995892BE1F649
S1131A80D80116968D919C911797019617969C9361
S1131A908E931697CE01DF91CF911F910F910895E8
S1131AA0FA01AA27283051F1203181F1E8946F938B
S1131AB06E7F6E5F7F4F8F4F9F4FAF4FB1E03ED031
S1131AC0B4E03CD0670F781F891F9A1FA11D680FCF
S1131AD0791F8A1F911DA11D6A0F711D811D911D02
S1131AE0A11D20D009F468943F912AE0269F112477
S1131AF03019305D3193DEF6CF010895462F4770DB
S1131B00405D4193B3E00FD0C9F7F6CF462F4F7035
S1131B10405D4A3318F0495D31FD4052419302D093
S1131B20A9F7EACFB4E0A695979587957795679539
S1131B30BA95C9F700976105710508959B01AC0139
S1131B400A2E06945795479537952795BA95C9F760
S1131B50620F731F841F951FA01D08952F923F923B
S1131B604F925F926F927F928F929F92AF92BF92A9
S1131B70CF92DF92EF92FF920F931F93CF93DF9355
S1131B80CDB7DEB7CA1BDB0B0FB6F894DEBF0FBEB2
S1131B90CDBF09942A88398848885F846E847D84FF
S1131BA08C849B84AA84B984C884DF80EE80FD8001
S1131BB00C811B81AA81B981CE0FD11D0FB6F89477
S1111BC0DEBF0FBECDBFED010895F894FFCF38
S1131BCEBD00C100C500C900CD00D100D500010083
S1131BDE00000001010100000000000000000202EC
S1131BEE0202020200000100010000000000253084
S1131BFE32643A253032643A253032643A25303232
S1131C0E73202000253032642F253032642F253086
S1131C1E32642D25303373202000414D0053756EF0
S1131C2E004D6F6E005475650057656400546875F9
S10D1C3E004672690053617400004F
S9030000FC
