S00A000052582E7372656370
S11300000C942A000C94E6030C940F040C9438040A
S11300100C9447000C9447000C9447000C94470040
S11300200C9447000C9447000C9447000C94470030
S11300300C9447000C949E040C9447000C94C70441
S11300400C9447000C9447000C9447000C94470010
S11300500C94470011241FBECFE5D8E0DEBFCDBF0E
S113006010E0A0E6B0E0E2E8FBE002C005900D92EB
S1130070A43AB107D9F721E0A4EAB0E001C01D9287
S1130080A734B207E1F70E94FD010C94BF050C945C
S11300900000CF93C82F60E081E00E9451036C2FD1
S11300A0661F6627661F87E00E945103C6FB66270A
S11300B060F986E00E945103C5FB662760F985E07C
S11300C00E945103C4FB662760F984E00E94510337
S11300D061E083E00E9451038FE99FE00197F1F70B
S11300E000C0000060E083E00E9451038FE99FE0BC
S11300F00197F1F700C00000C3FB662760F987E0B1
S11301000E945103C2FB662760F986E00E945103F6
S1130110C1FB662760F985E00E9451036C2F617072
S113012084E00E94510361E083E00E9451038FE95F
S11301309FE00197F1F700C0000060E083E00E94B7
S113014051038FE99FE00197F1F700C00000CF91C0
S11301500895CF93C82F61E081E00E9451036C2F72
S1130160661F6627661F87E00E945103C6FB662749
S113017060F986E00E945103C5FB662760F985E0BB
S11301800E945103C4FB662760F984E00E94510376
S113019061E083E00E9451038FE99FE00197F1F74A
S11301A000C0000060E083E00E9451038FE99FE0FB
S11301B00197F1F700C00000C3FB662760F987E0F0
S11301C00E945103C2FB662760F986E00E94510336
S11301D0C1FB662760F985E00E9451036C2F6170B2
S11301E084E00E94510361E083E00E9451038FE99F
S11301F09FE00197F1F700C0000060E083E00E94F7
S113020051038FE99FE00197F1F700C00000CF91FF
S113021008952FEF80E792E0215080409040E1F76D
S113022000C0000082E00E94490088E20E94490068
S11302308CE00E94490081E00E9449008FE99FE020
S11302400197F1F700C0000086E00E94490008957C
S11302500E94A90008950F931F93CF938C01C0E0CF
S113026003C00E942801CF5FF801EC0FF11D8081CB
S11302708111F7CFCF911F910F910895811105C07E
S1130280862F80680E9449000895813021F480EC13
S1130290860F0E9449000895CF92DF92EF92FF9259
S11302A01F93CF93DF93CDB7DEB72A970FB6F89499
S11302B0DEBF0FBECDBF6B017C01611571058105E9
S11302C0910521F480E30E94280139C099235CF44C
S11302D0F094E094D094C094C11CD11CE11CF11C96
S11302E08DE20E94280110E015C0C701B6012AE082
S11302F030E040E050E00E947E05E1E0F0E0EC0FE9
S1130300FD1FE10FF11D605D60831F5FC22ED32EC0
S1130310E42EF52EC114D104E104F10431F70DC02B
S1130320E12FF0E0319781E090E08C0F9D1FE80F02
S1130330F91F80810E94280111501111F1CF2A96D2
S11303400FB6F894DEBF0FBECDBFDF91CF911F91E2
S1130350FF90EF90DF90CF9008952091A500309109
S1130360A60044E1429FC001439F900D112489548B
S11303709F4F0E940205883021F56AE081E00E94C7
S11303803E012091A5003091A60044E1429FC001A6
S1130390439F900D112489549F4F0E942B0181E6A5
S11303A090E00E942B018091A5009091A6000196F7
S11303B09093A6008093A5008091A7008F5F8093FF
S11303C0A70008958091A7008823B1F08091A4002C
S11303D024E1829FC001112489549F4F0E94590532
S11303E0883051F48091A70081508093A7008091B8
S11303F0A4008F5F8093A40008950E9441030E948B
S1130400090178940E9461040E94880480EF94E0BA
S11304100E948C040E94950485E595E00E9499044D
S113042060E080E00E943E0185E690E00E942B019E
S11304306AE080E00E943E0188E690E00E942B0181
S11304400E94AD010E94E20168E080E00E943E014A
S11304506091A70070E080E090E00E944C01F0CF32
S1130460982F9695969596958770613009F459C0A2
S113047020F0623009F4A9C0FCC09130C9F028F022
S1130480923049F19330D1F1F6C04AB321E030E023
S1130490B90102C0660F771F8A95E2F7CB01942F4A
S11304A0982B9ABB9BB3809589238BBB80E00895DE
S11304B047B321E030E0B90102C0660F771F8A9587
S11304C0E2F7CB01942F982B97BB98B3809589239F
S11304D088BB80E0089544B321E030E0B90102C054
S11304E0660F771F8A95E2F7CB01942F982B94BB64
S11304F095B38095892385BB80E0089541B321E0BD
S113050030E0B90102C0660F771F8A95E2F7CB018C
S1130510942F982B91BB92B38095892382BB80E062
S113052008959130C9F028F0923049F19330D1F117
S1130530A4C04AB321E030E0B90102C0660F771FBE
S11305408A95E2F7CB018095942F98239ABB9BB3AD
S113055089238BBB80E0089547B321E030E0B901E3
S113056002C0660F771F8A95E2F7CB018095942F1E
S1130570982397BB98B3892388BB80E0089544B33C
S113058021E030E0B90102C0660F771F8A95E2F7D7
S1130590CB018095942F982394BB95B3892385BB75
S11305A080E0089541B321E030E0B90102C0660F54
S11305B0771F8A95E2F7CB018095942F982391BBFE
S11305C092B3892382BB80E008959130C9F028F06A
S11305D0923049F19330D1F152C04AB321E030E076
S11305E0B90102C0660F771F8A95E2F7CB01962FF7
S11305F0909594239ABB9BB3892B8BBB80E0089581
S113060047B321E030E0B90102C0660F771F8A9535
S1130610E2F7CB01962F9095942397BB98B3892B3F
S113062088BB80E0089544B321E030E0B90102C002
S1130630660F771F8A95E2F7CB01962F9095942346
S113064094BB95B3892B85BB80E0089541B321E029
S113065030E0B90102C0660F771F8A95E2F7CB013B
S1130660962F9095942391BB92B3892B82BB80E003
S1130670089581E0089581E0089581E0089581E07E
S11306800895CF93C0E009C0EC2FF0E0E559FF4F87
S113069060818C2F0E943002CF5FC032A8F3CF91CB
S11306A00895982F9695969596958770662309F4E4
S11306B043C0613009F084C09130A1F028F0923039
S11306C0F9F0933059F17EC04BB321E030E0B90129
S11306D002C0660F771F8A95E2F7CB01842B8BBB90
S11306E080E0089548B321E030E0B90102C0660F0C
S11306F0771F8A95E2F7CB01842B88BB80E00895AD
S113070045B321E030E0B90102C0660F771F8A9536
S1130710E2F7CB01842B85BB80E0089542B321E04E
S113072030E0B90102C0660F771F8A95E2F7CB016A
S1130730842B82BB80E008959130A9F028F0923098
S113074009F1933071F140C04BB321E030E0B901BD
S113075002C0660F771F8A95E2F7CB018095842348
S11307608BBB80E0089548B321E030E0B90102C0BA
S1130770660F771F8A95E2F7CB018095842388BBA7
S113078080E0089545B321E030E0B90102C0660F6E
S1130790771F8A95E2F7CB018095842385BB80E09F
S11307A0089542B321E030E0B90102C0660F771F1B
S11307B08A95E2F7CB018095842382BB80E008957B
S11307C083E0089581E0089581E008951F920F92D7
S11307D00FB60F9211242F933F934F935F936F9310
S11307E07F938F939F93AF93BF93EF93FF93E09186
S11307F0AC00F091AD00309709F00995FF91EF91AD
S1130800BF91AF919F918F917F916F915F914F9124
S11308103F912F910F900FBE0F901F9018951F922C
S11308200F920FB60F9211242F933F934F935F9320
S11308306F937F938F939F93AF93BF93EF93FF93A4
S1130840E091AA00F091AB00309709F00995FF916F
S1130850EF91BF91AF919F918F917F916F915F9134
S11308604F913F912F910F900FBE0F901F901895AD
S11308701F920F920FB60F9211242F933F934F9311
S11308805F936F937F938F939F93AF93BF93EF93F4
S1130890FF93E091A800F091A900309709F0099521
S11308A0FF91EF91BF91AF919F918F917F916F9144
S11308B05F914F913F912F910F900FBE0F901F901A
S11308C0189510BC83E389B980918B00813041F085
S11308D018F0823049F00AC08AB188608AB906C02B
S11308E08AB180618AB902C088E18AB980B584601E
S11308F080BD80B5826080BD80B58F7D80BD80B5B0
S11309008F7E80BD80B5877F80BD08958CB90895A2
S11309108AB180688AB908959093B5008093B40031
S113092008952CB1FC01208308958AB180648AB9AA
S113093008959093B3008093B20008951F920F928C
S11309400FB60F9211242F933F934F935F936F939E
S11309507F938F939F93AF93BF93EF93FF93E09114
S1130960B400F091B500309709F00995FF91EF912B
S1130970BF91AF919F918F917F916F915F914F91B3
S11309803F912F910F900FBE0F901F9018951F92BB
S11309900F920FB60F9211242F933F934F935F93AF
S11309A06F937F938F939F93AF93BF93EF93FF9333
S11309B0E091B200F091B300309709F00995FF91EE
S11309C0EF91BF91AF919F918F917F916F915F91C3
S11309D04F913F912F910F900FBE0F901F9018953C
S11309E08091B10090E0815D9E4F0E9491048091BE
S11309F0B1008F5F8093B1008091B6008F5F8093C8
S1130A00B6000895CF93DF93BC019091B60099236B
S1130A1009F447C09091B000292F30E0F901E15D5D
S1130A20FE4F4081411110C01092AF009F5F909320
S1130A30B0008091B60081508093B60098B381E0F5
S1130A40892788BB88E02EC0EB016091AF0070E07D
S1130A50FE01E60FF71FD901A15DBE4F8C91808383
S1130A6081E090E00E943E018091AF00C80FD11D4B
S1130A70888190E00E94280181E690E00E942B0189
S1130A808091AF008F5F8093AF008091B0008F5F43
S1130A908093B0008091B60081508093B60089E0C5
S1130AA001C080E0DF91CF91089581E080936000E0
S1130AB00895209160002130E9F42091AE00FC01FA
S1130AC0E20FF11D808181110CC08DE080830E94B2
S1130AD086041092AE0098B382E0892788BB88E030
S1130AE00AC00E9486048091AE008F5F8093AE009E
S1130AF08AE001C080E0109260000895052E97FB03
S1130B001EF400940E94950557FD07D00E949D0590
S1130B1007FC03D04EF40C94950550954095309500
S1130B2021953F4F4F4F5F4F089590958095709555
S1130B3061957F4F8F4F9F4F0895A1E21A2EAA1BF4
S1130B40BB1BFD010DC0AA1FBB1FEE1FFF1FA21779
S1130B50B307E407F50720F0A21BB30BE40BF50B76
S1130B60661F771F881F991F1A9469F760957095FF
S1130B70809590959B01AC01BD01CF010895F89437
S1050B80FFCFA1
S1130B8201202020005258005458000000000000A8
S1130B92000000000001000000000000000000004E
S1130BA20000000202020000000102020001020031
S1130BB2000300000000000000000000000000002C
S1070BC2000000002B
S9030000FC
