S00B00004E54492E737265632E
S11300000C942A000C94DF040C9408050C9431051C
S11300100C9447000C9447000C94FE050C94470084
S11300200C94D5050C94AC050C9483050C945A05DA
S11300300C9447000C9447000C9447000C94470020
S11300400C9426030C9447000C9447000C9447002E
S11300500C94470011241FBECFE5D8E0DEBFCDBF0E
S113006011E0A0E6B0E0E2E5FCE002C005900D92EC
S1130070A631B107D9F721E0A6E1B1E001C01D9294
S1130080A832B207E1F70E941F030C9427060C94D0
S11300900000CF936AE670E0809161000E9404033F
S11300A062E670E0809160000E94040382E790E0C1
S11300B00E94D30260E081E00E94E60286E890E0BC
S11300C00E94D302809161000E94D102809161005C
S11300D00E94D10260E082E00E94E60287E990E09B
S11300E00E94D30260E083E00E94E60287EA90E087
S11300F00E94D302809161000E94D102809161002C
S11301000E94D102809161000E94D102809161001D
S11301100E94D102809161000E94D102809161000D
S11301200E94D102809161000E94D10280916100FD
S11301300E94D102809161000E94D1022FEF8DE3D1
S113014099E4215080409040E1F700C000000E94F3
S1130150FA02C0E06C2F83E00E94E6028091600006
S11301600E94D102CF5FCB30A9F7C1E06C2F82E0AF
S11301700E94E602809160000E94D102CF5FC830E5
S1130180A9F769E082E00E94E602809160000E9483
S1130190D102C2E06C2F81E00E94E60280916000EF
S11301A00E94D102CF5FC530A9F766E081E00E94CA
S11301B0E602809160000E94D10263E080E00E9428
S11301C0E602809160000E94D10269E080E00E9412
S11301D0E60287EB90E00E94D30269E081E00E948E
S11301E0E60280EC90E00E94D3026CE082E00E9480
S11301F0E602809161000E94D102809161000E9418
S1130200D102809161000E94D102809161000E941C
S1130210D1022FEF8DE399E4215080409040E1F723
S113022000C000000E94FA02C2E06C2F83E00E942A
S1130230E602809160000E94D102CF5FC530A9F729
S1130240C2E06C2F82E00E94E602809160000E946E
S1130250D102CF5FC530A9F7C2E06C2F81E00E94C4
S1130260E602809160000E94D102CF5FC530A9F7F9
S113027063E080E00E94E602809160000E94D10267
S113028066E080E00E94E60288EC90E00E94D302DF
S113029066E081E00E94E60284ED90E00E94D302D1
S11302A068E082E00E94E602809161000E94D1022F
S11302B0809161000E94D102809161000E94D1026C
S11302C0809161000E94D1022FEF8DE399E42150C7
S11302D080409040E1F700C000000E94FA02C0E0B4
S11302E06C2F81E00E94E602809161000E94D1029D
S11302F0CF5FC530A9F7C1E06C2F82E00E94E6020F
S1130300809161000E94D102CF5FC430A9F763E0FD
S113031082E00E94E602809161000E94D10260E0C6
S113032080E00E94E602809161000E94D10261E0B7
S113033080E00E94E602809161000E94D10263E0A5
S113034080E00E94E602809161000E94D10264E094
S113035080E00E94E602809161000E94D10266E082
S113036080E00E94E6028FED90E00E94D30266E0F6
S113037081E00E94E60287EE90E00E94D3026CE0E6
S113038082E00E94E602809161000E94D102809185
S113039061000E94D102809161000E94D10280918B
S11303A061000E94D1026CE083E00E94E602809129
S11303B061000E94D102809161000E94D10280916B
S11303C061000E94D102809161000E94D1022FEF4E
S11303D08DE399E4215080409040E1F700C0000093
S11303E0CF910C94FA02CF93C82F60E083E00E946F
S11303F058046C2F661F6627661F8CE00E94580401
S1130400C6FB662760F98AE00E945804C5FB66278C
S113041060F989E00E945804C4FB662760F98DE006
S11304200E94580461E082E00E9458048FEC97E037
S11304300197F1F700C0000060E082E00E945804D8
S11304408FEC97E00197F1F700C00000C3FB66272B
S113045060F98CE00E945804C2FB662760F98AE0C8
S11304600E945804C1FB662760F989E00E94580481
S11304706C2F61708DE00E94580461E082E00E945C
S113048058048FEC97E00197F1F700C0000060E09A
S113049082E00E9458048FEC97E00197F1F700C0C6
S11304A00000CF910895CF93C82F61E083E00E94AC
S11304B058046C2F661F6627661F8CE00E94580440
S11304C0C6FB662760F98AE00E945804C5FB6627CC
S11304D060F989E00E945804C4FB662760F98DE046
S11304E00E94580461E082E00E9458048FEC97E077
S11304F00197F1F700C0000060E082E00E94580418
S11305008FEC97E00197F1F700C00000C3FB66276A
S113051060F98CE00E945804C2FB662760F98AE007
S11305200E945804C1FB662760F989E00E945804C0
S11305306C2F61708DE00E94580461E082E00E949B
S113054058048FEC97E00197F1F700C0000060E0D9
S113055082E00E9458048FEC97E00197F1F700C005
S11305600000CF9108952FE788E391E02150804067
S11305709040E1F700C0000082E00E94F30188E2AD
S11305800E94F3018CE00E94F30181E00E94F301D8
S11305908FEC97E00197F1F700C0000086E00C941F
S11305A0F3010C9453020F931F93CF938C01C0E07B
S11305B0F801EC0FF11D8081882321F00E94530281
S11305C0CF5FF6CFCF911F910F910895982F862F6B
S11305D0911102C080580BC0913011F4805407C0AF
S11305E0923011F48C5603C0933019F48C520C944D
S11305F0F301089581E00E94F3018FEC97E00197E5
S1130600F1F700C0000008950F931F93CF93DF9379
S11306108B01880F880F880F805C0E94F301E8012A
S1130620085F1F4F89910E945302C017D107D1F769
S113063080E8DF91CF911F910F910C94F3010E94F8
S113064045040E94B3020E944900FDCF1F920F92FD
S11306500FB60F9211242F933F934F935F936F9391
S11306607F938F939F93AF93BF93EF93FF93E09107
S11306701601F0911701309709F00995FF91EF9158
S1130680BF91AF919F918F917F916F915F914F91A6
S11306903F912F910F900FBE0F901F901895982F98
S11306A09695969596958770613009F44DC020F023
S11306B0623009F497C0E7C0913031F1A8F092306C
S11306C099F1933009F0DFC041B321E030E0B90182
S11306D002C0660F771F8A95E2F7CB01942F982BFF
S11306E091BB92B380957CC04AB321E030E0B9015C
S11306F002C0660F771F8A95E2F7CB01942F982BDF
S11307009ABB9BB3809547C047B321E030E0B90161
S113071002C0660F771F8A95E2F7CB01942F982BBE
S113072097BB98B3809548C044B321E030E0B90149
S113073002C0660F771F8A95E2F7CB01942F982B9E
S113074094BB95B3809549C0913039F1A8F09230AB
S1130750A9F1933009F097C041B321E030E0B90129
S113076002C0660F771F8A95E2F7CB018095942F1C
S1130770982391BB92B334C04AB321E030E0B9016D
S113078002C0660F771F8A95E2F7CB018095942FFC
S113079098239ABB9BB389234EC047B321E030E032
S11307A0B90102C0660F771F8A95E2F7CB018095E5
S11307B0942F982397BB98B3892350C044B321E066
S11307C030E0B90102C0660F771F8A95E2F7CB01CA
S11307D08095942F982394BB95B3892385BB2CC013
S11307E089234FC0913051F1B0F09230C9F1933068
S11307F009F049C041B321E030E0B90102C0660FFD
S1130800771F8A95E2F7CB01962F9095942391BB9D
S113081092B3892B36C04AB321E030E0B90102C05B
S1130820660F771F8A95E2F7CB01962F9095942354
S11308309ABB9BB3892B8BBB80E0089547B321E01F
S113084030E0B90102C0660F771F8A95E2F7CB0149
S1130850962F9095942397BB98B3892B88BBECCFA4
S113086044B321E030E0B90102C0660F771F8A95D6
S1130870E2F7CB01962F9095942394BB95B3892BE3
S1130880ADCF82BBD9CF81E008950F931F93CF934F
S113089005EF10E0C0E0F80161918F018C2F0E94F8
S11308A04F03CF5FC032B9F7CF911F910F910895D5
S11308B0982F96959695969587706623D9F1613011
S11308C009F079C09130F1F088F0923039F1933029
S11308D009F073C042B321E030E0B90102C0660FF1
S11308E0771F8A95E2F7CB01842B63C04BB321E0D9
S11308F030E0B90102C0660F771F8A95E2F7CB0199
S1130900842B38C048B321E030E0B90102C0660F3F
S1130910771F8A95E2F7CB01842B3AC045B321E0D7
S113092030E0B90102C0660F771F8A95E2F7CB0168
S1130930842B3CC0913001F188F0923059F193300E
S1130940E1F542B321E030E0B90102C0660F771F40
S11309508A95E2F7CB01809584232BC04BB321E029
S113096030E0B90102C0660F771F8A95E2F7CB0128
S1130970809584238BBB1BC048B321E030E0B901D0
S113098002C0660F771F8A95E2F7CB018095842316
S113099088BB0DC045B321E030E0B90102C0660F49
S11309A0771F8A95E2F7CB018095842385BB80E08D
S11309B0089582BBFCCF83E0089581E008951F92DF
S11309C00F920FB60F9211242F933F934F935F937F
S11309D06F937F938F939F93AF93BF93EF93FF9303
S11309E0E0911C01F0911D01309709F00995FF91E8
S11309F0EF91BF91AF919F918F917F916F915F9193
S1130A004F913F912F910F900FBE0F901F9018950B
S1130A101F920F920FB60F9211242F933F934F936F
S1130A205F936F937F938F939F93AF93BF93EF9352
S1130A30FF93E0911A01F0911B01309709F0099599
S1130A40FF91EF91BF91AF919F918F917F916F91A2
S1130A505F914F913F912F910F900FBE0F901F9078
S1130A6018951F920F920FB60F9211242F933F9354
S1130A704F935F936F937F938F939F93AF93BF93A2
S1130A80EF93FF93E0911801F0911901309709F069
S1130A900995FF91EF91BF91AF919F918F917F91B4
S1130AA06F915F914F913F912F910F900FBE0F90D7
S1130AB01F9018951F920F920FB60F9211242F9327
S1130AC03F934F935F936F937F938F939F93AF93D2
S1130AD0BF93EF93FF93E0912601F09127013097A4
S1130AE009F00995FF91EF91BF91AF919F918F917B
S1130AF07F916F915F914F913F912F910F900FBE16
S1130B000F901F9018951F920F920FB60F921124F9
S1130B102F933F934F935F936F937F938F939F9301
S1130B20AF93BF93EF93FF93E0912401F0912501DC
S1130B30309709F00995FF91EF91BF91AF919F9183
S1130B408F917F916F915F914F913F912F910F9072
S1130B500FBE0F901F9018951F920F920FB60F9211
S1130B6011242F933F934F935F936F937F938F93AE
S1130B709F93AF93BF93EF93FF93E0912201F09182
S1130B802301309709F00995FF91EF91BF91AF913F
S1130B909F918F917F916F915F914F913F912F9191
S1130BA00F900FBE0F901F9018951F920F920FB6C3
S1130BB00F9211242F933F934F935F936F937F93DF
S1130BC08F939F93AF93BF93EF93FF93E091200193
S1130BD0F0912101309709F00995FF91EF91BF91B0
S1130BE0AF919F918F917F916F915F914F913F91C1
S1130BF02F910F900FBE0F901F9018951F920F9278
S1130C000FB60F9211242F933F934F935F936F93DB
S1130C107F938F939F93AF93BF93EF93FF93E09151
S1130C201E01F0911F01309709F00995FF91EF9192
S1130C30BF91AF919F918F917F916F915F914F91F0
S1130C403F912F910F900FBE0F901F901895F8941D
S1050C50FFCFD0
S1130C5201031F1F111111111F1F000A1F1F0E0470
S1130C62000048492C696D20746F75726973742091
S1130C7268616D6F20002020206920766973746595
S1130C8264202045472000206C6574206D65207324
S1130C92686F7720752000706C616365732069202A
S1130CA276617374656400507972616D696473006E
S1130CB2696E2047697A6100636169726F20746F9B
S1130CC277657200696E206361706974616C0020DB
S1130CD220376269627900636F6D6520746F204505
S1130CE26779707400010100000000000000000038
S1130CF200000000000000020202020000000000E6
S1090D02000000000000E7
S9030000FC
