S00B00004E54492E737265632E
S11300000C942A000C94AC040C94D5040C94FE04B7
S11300100C9447000C9447000C94F4050C9447008E
S11300200C94CB050C94A2050C9479050C94500502
S11300300C9427050C941D060C9447000C9446065A
S11300400C94D3020C9447000C9447000C94470082
S11300500C94470011241FBECFE5D8E0DEBFCDBF0E
S113006010E0A0E6B0E0E0EEFFE002C005900D92E3
S1130070A43AB107D9F720E0A4EAB0E001C01D9288
S1130080AC3BB207E1F70E94B5020C94EE070C9466
S11300900000CF93C82F60E083E00E9425046C2FFA
S11300A0661F6627661F8BE00E942504C6FB662731
S11300B060F98AE00E942504C5FB662760F989E09F
S11300C00E942504C4FB662760F988E00E94250489
S11300D061E082E00E9425048FEC97E00197F1F73C
S11300E000C0000060E082E00E9425048FEC97E0ED
S11300F00197F1F700C00000C3FB662760F98BE0AD
S11301000E942504C2FB662760F98AE00E94250448
S1130110C1FB662760F989E00E9425046C2F617099
S113012088E00E94250461E082E00E9425048FECAF
S113013097E00197F1F700C0000060E082E00E94C0
S113014025048FEC97E00197F1F700C00000CF91F0
S11301500895CF93C82F61E083E00E9425046C2F9B
S1130160661F6627661F8BE00E942504C6FB662770
S113017060F98AE00E942504C5FB662760F989E0DE
S11301800E942504C4FB662760F988E00E942504C8
S113019061E082E00E9425048FEC97E00197F1F77B
S11301A000C0000060E082E00E9425048FEC97E02C
S11301B00197F1F700C00000C3FB662760F98BE0EC
S11301C00E942504C2FB662760F98AE00E94250488
S11301D0C1FB662760F989E00E9425046C2F6170D9
S11301E088E00E94250461E082E00E9425048FECEF
S11301F097E00197F1F700C0000060E082E00E9400
S113020025048FEC97E00197F1F700C00000CF912F
S113021008952FE788E391E0215080409040E1F772
S113022000C0000082E00E94490088E20E94490068
S11302308CE00E94490081E00E9449008FEC97E025
S11302400197F1F700C0000086E00C9449000F9379
S11302501F93CF938C01C0E0F801EC0FF11D808156
S1130260882321F00E94A900CF5FF6CFCF911F9180
S11302700F910895811103C0862F806804C08130D6
S113028021F480EC860F0C9449000895982F862F52
S1130290911102C080580BC0913011F4805407C0F2
S11302A0923011F48C5603C0933019F48C520C9490
S11302B0490008954F925F926F927F92AF92BF92DE
S11302C0CF92DF92EF92FF921F93CF93DF93CDB73C
S11302D0DEB72A970FB6F894DEBF0FBECDBF6B0111
S11302E07C016115710581059105B1F480E32A96BD
S11302F00FB6F894DEBF0FBECDBFDF91CF911F9133
S1130300FF90EF90DF90CF90BF90AF907F906F9071
S11303105F904F900C94A90097FF0BC0F094E09469
S1130320D094C094C11CD11CE11CF11C8DE20E942C
S1130330A90010E09AE0492E512C612C712CAA24BA
S1130340A394B12CAC0EBD1EA10EB11CC701B60105
S1130350A30192010E949E07605DF50160831F5F07
S113036069017A01C114D104E104F10441F71123B4
S113037041F0FE01E10FF11D80810E94A90011509E
S1130380F6CF2A960FB6F894DEBF0FBECDBFDF912D
S1130390CF911F91FF90EF90DF90CF90BF90AF90DF
S11303A07F906F905F904F900895CF93DF93D42FF9
S11303B00E944601C0E0CD1729F080E20E94A90006
S11303C0CF5FF9CFDF91CF910895CF92DF92EF9273
S11303D0FF92CF930E941903C82F809160009091DF
S11303E061008530910591F50E94D1022C2F30E0F7
S11303F0AEEEB2E00E94BD070E94100720E030ED8F
S11304004FEB54E40E946F060E94E1066B017C01ED
S113041083E3C816D10450F060E083E00E944601F3
S113042082E690E00E94270161E006C046E060E0B9
S113043083E00E94D50160E08DE00E94250460E025
S113044080E00E943A0185E690E034C08630910550
S1130450F1F50E94D1022C2F30E0AEEEB2E00E9402
S1130460BD070E94100720E030ED4FEB54E40E94DA
S11304706F060E94E1066B017C0183E3C816D10478
S113048050F068E083E00E9446018AE690E00E9412
S1130490270161E006C046E067E083E00E94D501E1
S11304A060E08EE00E94250467E080E00E943A014B
S11304B08DE690E00E942701B60180E090E00E9462
S11304C05A01809160009091610001963DC00797A8
S11304D009F040C00E94D1022C2F30E0AEEEB2E011
S11304E00E94BD070E94100720E030ED4FEB54E45A
S11304F00E946F060E94E1066B017C0183E3C8162B
S1130500D10450F060E183E00E94460182E790E06C
S11305100E94270161E006C046E06EE083E00E948D
S1130520D50160E08FE00E9425046EE080E00E9427
S1130530460185E790E00E942701B60180E090E043
S11305400E945A0185E090E09093610080936000DE
S11305500E94CF02809160000E941203CF91FF900D
S1130560EF90DF90CF900C9410030E9412040E942D
S11305700901789466E081E00E94FC0285EE91E036
S11305800E94CA020E94CF0285E00E9412030E94C8
S11305901003FFCF9093A5008093A4000895339A8D
S11305A00895339808951F920F920FB60F92112455
S11305B02F933F934F935F936F937F938F939F9367
S11305C0AF93BF93EF93FF93E091A400F091A50044
S11305D0309709F00995FF91EF91BF91AF919F91E9
S11305E08F917F916F915F914F913F912F910F90D8
S11305F00FBE0F901F901895813041F020F082308B
S113060039F43F9A04C03F983E9802C03F983E9AFE
S113061086B1887F86B986B1682B66B9379A089502
S1130620369A089597B1907E97B997B1892B87B977
S1130630089584B195B10895982F969596959695B9
S11306408770613009F44DC020F0623009F497C01E
S1130650E7C0913031F1A8F0923099F1933009F06C
S1130660DFC041B321E030E0B90102C0660F771F5B
S11306708A95E2F7CB01942F982B91BB92B3809586
S11306807CC04AB321E030E0B90102C0660F771F95
S11306908A95E2F7CB01942F982B9ABB9BB3809554
S11306A047C047B321E030E0B90102C0660F771FAD
S11306B08A95E2F7CB01942F982B97BB98B380953A
S11306C048C044B321E030E0B90102C0660F771F8F
S11306D08A95E2F7CB01942F982B94BB95B3809520
S11306E049C0913039F1A8F09230A9F1933009F062
S11306F097C041B321E030E0B90102C0660F771F13
S11307008A95E2F7CB018095942F982391BB92B3FD
S113071034C04AB321E030E0B90102C0660F771F4C
S11307208A95E2F7CB018095942F98239ABB9BB3CB
S113073089234EC047B321E030E0B90102C0660FFF
S1130740771F8A95E2F7CB018095942F982397BB66
S113075098B3892350C044B321E030E0B90102C00A
S1130760660F771F8A95E2F7CB018095942F982323
S113077094BB95B3892385BB2CC089234FC091308A
S113078051F1B0F09230C9F1933009F049C041B34E
S113079021E030E0B90102C0660F771F8A95E2F7C5
S11307A0CB01962F9095942391BB92B3892B36C09D
S11307B04AB321E030E0B90102C0660F771F8A9581
S11307C0E2F7CB01962F909594239ABB9BB3892B88
S11307D08BBB80E0089547B321E030E0B90102C04B
S11307E0660F771F8A95E2F7CB01962F9095942395
S11307F097BB98B3892B88BBECCF44B321E030E09E
S1130800B90102C0660F771F8A95E2F7CB01962FD4
S11308109095942394BB95B3892BADCF82BBD9CF4C
S113082081E008950F931F93CF9304E810E0C0E094
S1130830F80161918F018C2F0E941C03CF5FC0329D
S1130840B9F7CF911F910F910895982F969596958A
S1130850969587706623D9F1613009F079C091309B
S1130860F1F088F0923039F1933009F073C042B35B
S113087021E030E0B90102C0660F771F8A95E2F7E4
S1130880CB01842B63C04BB321E030E0B90102C03B
S1130890660F771F8A95E2F7CB01842B38C048B3E3
S11308A021E030E0B90102C0660F771F8A95E2F7B4
S11308B0CB01842B3AC045B321E030E0B90102C03A
S11308C0660F771F8A95E2F7CB01842B3CC09130E9
S11308D001F188F0923059F19330E1F542B321E00F
S11308E030E0B90102C0660F771F8A95E2F7CB01A9
S11308F0809584232BC04BB321E030E0B90102C0C2
S1130900660F771F8A95E2F7CB01809584238BBB12
S11309101BC048B321E030E0B90102C0660F771F65
S11309208A95E2F7CB018095842388BB0DC045B33B
S113093021E030E0B90102C0660F771F8A95E2F723
S1130940CB018095842385BB80E0089582BBFCCFD6
S113095083E0089581E008951F920F920FB60F92DD
S113096011242F933F934F935F936F937F938F93B0
S11309709F93AF93BF93EF93FF93E091AA00F091FD
S1130980AB00309709F00995FF91EF91BF91AF91BA
S11309909F918F917F916F915F914F913F912F9193
S11309A00F900FBE0F901F9018951F920F920FB6C5
S11309B00F9211242F933F934F935F936F937F93E1
S11309C08F939F93AF93BF93EF93FF93E091A8000E
S11309D0F091A900309709F00995FF91EF91BF912B
S11309E0AF919F918F917F916F915F914F913F91C3
S11309F02F910F900FBE0F901F9018951F920F927A
S1130A000FB60F9211242F933F934F935F936F93DD
S1130A107F938F939F93AF93BF93EF93FF93E09153
S1130A20A600F091A700309709F00995FF91EF9186
S1130A30BF91AF919F918F917F916F915F914F91F2
S1130A403F912F910F900FBE0F901F9018951F92FA
S1130A500F920FB60F9211242F933F934F935F93EE
S1130A606F937F938F939F93AF93BF93EF93FF9372
S1130A70E091AC00F091AD00309709F00995FF9139
S1130A80EF91BF91AF919F918F917F916F915F9102
S1130A904F913F912F910F900FBE0F901F9018957B
S1130AA01F920F920FB60F9211242F933F934F93DF
S1130AB05F936F937F938F939F93AF93BF93EF93C2
S1130AC0FF93E091B600F091B700309709F00995D3
S1130AD0FF91EF91BF91AF919F918F917F916F9112
S1130AE05F914F913F912F910F900FBE0F901F90E8
S1130AF018951F920F920FB60F9211242F933F93C4
S1130B004F935F936F937F938F939F93AF93BF9311
S1130B10EF93FF93E091B400F091B500309709F0A2
S1130B200995FF91EF91BF91AF919F918F917F9123
S1130B306F915F914F913F912F910F900FBE0F9046
S1130B401F9018951F920F920FB60F9211242F9396
S1130B503F934F935F936F937F938F939F93AF9341
S1130B60BF93EF93FF93E091B200F091B3003097FD
S1130B7009F00995FF91EF91BF91AF919F918F91EA
S1130B807F916F915F914F913F912F910F900FBE85
S1130B900F901F9018951F920F920FB60F92112469
S1130BA02F933F934F935F936F937F938F939F9371
S1130BB0AF93BF93EF93FF93E091B000F091B10036
S1130BC0309709F00995FF91EF91BF91AF919F91F3
S1130BD08F917F916F915F914F913F912F910F90E2
S1130BE00FBE0F901F9018951F920F920FB60F9281
S1130BF011242F933F934F935F936F937F938F931E
S1130C009F93AF93BF93EF93FF93E091AE00F09166
S1130C10AF00309709F00995FF91EF91BF91AF9123
S1130C209F918F917F916F915F914F913F912F9100
S1130C300F900FBE0F901F9018951F920F920FB632
S1130C400F9211242F933F934F935F936F937F934E
S1130C508F939F93AF93BF93EF93FF93E091BA0069
S1130C60F091BB00309709F00995FF91EF91BF9186
S1130C70AF919F918F917F916F915F914F913F9130
S1130C802F910F900FBE0F901F9018951F920F92E7
S1130C900FB60F9211242F933F934F935F936F934B
S1130CA07F938F939F93AF93BF93EF93FF93E091C1
S1130CB0B800F091B900309709F00995FF91EF91D0
S1130CC0BF91AF919F918F917F916F915F914F9160
S1130CD03F912F910F900FBE0F901F9018950E9477
S1130CE083060C9464070E945D0758F00E9456071F
S1130CF040F029F45F3F29F00C944D0751110C94F6
S1130D0098070C9453070E94750768F39923B1F36D
S1130D10552391F3951B550BBB27AA27621773071D
S1130D20840738F09F5F5F4F220F331F441FAA1FB1
S1130D30A9F335D00E2E3AF0E0E832D0915050406D
S1130D40E695001CCAF72BD0FE2F29D0660F771F1B
S1130D50881FBB1F261737074807AB07B0E809F001
S1130D60BB0B802DBF01FF2793585F4F3AF09E3F86
S1130D70510578F00C944D070C9498075F3FE4F309
S1130D80983ED4F3869577956795B795F7959F5FC9
S1130D90C9F7880F911D9695879597F90895E1E015
S1130DA0660F771F881FBB1F621773078407BA0774
S1130DB020F0621B730B840BBA0BEE1F88F7E095CF
S1130DC008950E947D0788F09F5798F0B92F9927BE
S1130DD0B751B0F0E1F0660F771F881F991F1AF022
S1130DE0BA95C9F714C0B13091F00E949707B1E0E9
S1130DF008950C949707672F782F8827B85F39F0E8
S1130E00B93FCCF3869577956795B395D9F73EF4BA
S1130E1090958095709561957F4F8F4F9F4F089562
S1130E20E89409C097FB3EF4909580957095619580
S1130E307F4F8F4F9F4F9923A9F0F92F96E9BB2736
S1130E409395F695879577956795B795F111F8CFB2
S1130E50FAF4BB0F11F460FF1BC06F5F7F4F8F4F1D
S1130E609F4F16C0882311F096E911C0772321F013
S1130E709EE8872F762F05C0662371F096E8862FAB
S1130E8070E060E02AF09A95660F771F881FDAF702
S1130E90880F9695879597F9089597F99F6780E845
S1130EA070E060E008959FEF80EC089500240A94B8
S1130EB01616170618060906089500240A94121631
S1130EC01306140605060895092E0394000C11F464
S1130ED0882352F0BB0F40F4BF2B11F460FF04C011
S1130EE06F5F7F4F8F4F9F4F089557FD9058440F6A
S1130EF0551F59F05F3F71F04795880F97FB991F75
S1130F0061F09F3F79F08795089512161306140631
S1130F10551FF2CF4695F1DF08C0161617061806BE
S1130F20991FF1CF86957105610508940895E89499
S1130F30BB2766277727CB0197F90895052E97FBE2
S1130F401EF400940E94B50757FD07D00E94CC07F9
S1130F5007FC03D04EF40C94B5075095409530959A
S1130F6021953F4F4F4F5F4F089590958095709511
S1130F7061957F4F8F4F9F4F0895A29FB001B39FFC
S1130F80C001A39F700D811D1124911DB29F700D8E
S1130F90811D1124911D0895A1E21A2EAA1BBB1BC9
S1130FA0FD010DC0AA1FBB1FEE1FFF1FA217B30731
S1130FB0E407F50720F0A21BB30BE40BF50B661F47
S1130FC0771F881F991F1A9469F76095709580950B
S1130FD090959B01AC01BD01CF010895F894FFCF1A
S1130FE0050053310053313A200053320053323A52
S1130FF0200053330053333A20002020200054585B
S1131000005258000100000000010101000000002E
S113101000000000000002020202000001000100C2
S107102000000000C8
S9030000FC
