:100000000C946B000C945D030C9486030C94AF036A
:100010000C9488000C9488000C949D060C94880025
:100020000C9474060C944B060C9422060C94F9055F
:100030000C94D0050C94C6060C9488000C94EF0622
:100040000C94A4010C9488000C9488000C948800F3
:100050000C94880007634236B79BD8A71A396856B4
:1000600018AEBAAB558C1D3CB7CC5763BD6DEDFDDA
:10007000753EF6177231BF000000803F0800000097
:10008000BE922449123EABAAAA2ABECDCCCC4C3E8D
:1000900000000080BEABAAAAAA3E00000000BF007C
:1000A0000000803F0000000000084178D3BB438778
:1000B000D1133D190E3CC3BD4282AD2B3E68EC828C
:1000C00076BED98FE1A93E4C80EFFFBE01C4FF7F11
:1000D0003F000000000011241FBECFE5D8E0DEBFC6
:1000E000CDBF10E0A0E6B0E0E0E5F5E102C005908C
:1000F0000D92A23DB107D9F720E0A2EDB0E001C01A
:100100001D92AA3EB207E1F70E949B010C94A60A39
:100110000C940000CF93C82F60E083E00E94D602C9
:100120006C2F661F6627661F8CE00E94D602C6FBF6
:10013000662760F98AE00E94D602C5FB662760F94F
:1001400089E00E94D602C4FB662760F988E00E941D
:10015000D60261E082E00E94D6028FE99FE001971B
:10016000F1F700C0000060E082E00E94D6028FE953
:100170009FE00197F1F700C00000C3FB662760F91C
:100180008CE00E94D602C2FB662760F98AE00E94DA
:10019000D602C1FB662760F989E00E94D6026C2F67
:1001A000617088E00E94D60261E082E00E94D6027F
:1001B0008FE99FE00197F1F700C0000060E082E066
:1001C0000E94D6028FE99FE00197F1F700C000007E
:1001D000CF910895CF93C82F61E083E00E94D602AB
:1001E0006C2F661F6627661F8CE00E94D602C6FB36
:1001F000662760F98AE00E94D602C5FB662760F98F
:1002000089E00E94D602C4FB662760F988E00E945C
:10021000D60261E082E00E94D6028FE99FE001975A
:10022000F1F700C0000060E082E00E94D6028FE992
:100230009FE00197F1F700C00000C3FB662760F95B
:100240008CE00E94D602C2FB662760F98AE00E9419
:10025000D602C1FB662760F989E00E94D6026C2FA6
:10026000617088E00E94D60261E082E00E94D602BE
:100270008FE99FE00197F1F700C0000060E082E0A5
:100280000E94D6028FE99FE00197F1F700C00000BD
:10029000CF9108952FEF80E792E021508040904069
:1002A000E1F700C0000082E00E948A0088E20E941C
:1002B0008A008CE00E948A0081E00E948A008FE917
:1002C0009FE00197F1F700C0000086E00C948A00DF
:1002D0000F931F93CF938C01C0E0F801EC0FF11D39
:1002E0008081882321F00E94EA00CF5FF6CFCF9172
:1002F0001F910F910895811103C0862F806804C05B
:10030000813021F480EC860F0C948A000895982F98
:10031000862F911102C080580BC0913011F4805487
:1003200007C0923011F48C5603C0933019F48C52EC
:100330000C948A0008950E94C3020E944A010E9400
:10034000930480E090E008951F920F920FB60F92F1
:1003500011242F933F934F935F936F937F938F93CA
:100360009F93AF93BF93EF93FF93E091D200F091EF
:10037000D300309709F00995FF91EF91BF91AF91AC
:100380009F918F917F916F915F914F913F912F91AD
:100390000F900FBE0F901F901895982F96959695D9
:1003A00096958770613009F44DC020F0623009F4F1
:1003B00097C0E7C0913031F1A8F0923099F19330B5
:1003C00009F0DFC041B321E030E0B90102C0660F9F
:1003D000771F8A95E2F7CB01942F982B91BB92B3AC
:1003E00080957CC04AB321E030E0B90102C0660FBD
:1003F000771F8A95E2F7CB01942F982B9ABB9BB37A
:10040000809547C047B321E030E0B90102C0660FD4
:10041000771F8A95E2F7CB01942F982B97BB98B35F
:10042000809548C044B321E030E0B90102C0660FB6
:10043000771F8A95E2F7CB01942F982B94BB95B345
:10044000809549C0913039F1A8F09230A9F19330EC
:1004500009F097C041B321E030E0B90102C0660F56
:10046000771F8A95E2F7CB018095942F982391BB53
:1004700092B334C04AB321E030E0B90102C0660F44
:10048000771F8A95E2F7CB018095942F98239ABB2A
:100490009BB389234EC047B321E030E0B90102C0CD
:1004A000660F771F8A95E2F7CB018095942F9823EA
:1004B00097BB98B3892350C044B321E030E0B90121
:1004C00002C0660F771F8A95E2F7CB018095942FC3
:1004D000982394BB95B3892385BB2CC089234FC037
:1004E000913051F1B0F09230C9F1933009F049C028
:1004F00041B321E030E0B90102C0660F771F8A9551
:10050000E2F7CB01962F9095942391BB92B3892B60
:1005100036C04AB321E030E0B90102C0660F771F50
:100520008A95E2F7CB01962F909594239ABB9BB3C3
:10053000892B8BBB80E0089547B321E030E0B901FF
:1005400002C0660F771F8A95E2F7CB01962F909530
:10055000942397BB98B3892B88BBECCF44B321E09D
:1005600030E0B90102C0660F771F8A95E2F7CB0130
:10057000962F9095942394BB95B3892BADCF82BBD6
:10058000D9CF81E008950F931F93CF9304E710E034
:10059000C0E0F80161918F018C2F0E94CD01CF5FE7
:1005A000C032B9F7CF911F910F910895982F96956A
:1005B0009695969587706623D9F1613009F079C0D8
:1005C0009130F1F088F0923039F1933009F073C036
:1005D00042B321E030E0B90102C0660F771F8A956F
:1005E000E2F7CB01842B63C04BB321E030E0B901CB
:1005F00002C0660F771F8A95E2F7CB01842B38C0C3
:1006000048B321E030E0B90102C0660F771F8A9538
:10061000E2F7CB01842B3AC045B321E030E0B901C9
:1006200002C0660F771F8A95E2F7CB01842B3CC08E
:10063000913001F188F0923059F19330E1F542B3F5
:1006400021E030E0B90102C0660F771F8A95E2F71A
:10065000CB01809584232BC04BB321E030E0B9015E
:1006600002C0660F771F8A95E2F7CB01809584233D
:100670008BBB1BC048B321E030E0B90102C0660F5C
:10068000771F8A95E2F7CB018095842388BB0DC044
:1006900045B321E030E0B90102C0660F771F8A95AB
:1006A000E2F7CB018095842385BB80E0089582BB6F
:1006B000FCCF83E0089581E008951F920F920FB65A
:1006C0000F9211242F933F934F935F936F937F93D8
:1006D0008F939F93AF93BF93EF93FF93E091D800D5
:1006E000F091D900309709F00995FF91EF91BF91F2
:1006F000AF919F918F917F916F915F914F913F91BA
:100700002F910F900FBE0F901F9018951F920F9270
:100710000FB60F9211242F933F934F935F936F93D4
:100720007F938F939F93AF93BF93EF93FF93E0914A
:10073000D600F091D700309709F00995FF91EF911D
:10074000BF91AF919F918F917F916F915F914F91E9
:100750003F912F910F900FBE0F901F9018951F92F1
:100760000F920FB60F9211242F933F934F935F93E5
:100770006F937F938F939F93AF93BF93EF93FF9369
:10078000E091D400F091D500309709F00995FF91E0
:10079000EF91BF91AF919F918F917F916F915F91F9
:1007A0004F913F912F910F900FBE0F901F90189572
:1007B00040E060E090E00E949105883011F40E94D2
:1007C000C70508951F93CF93DF93EC01162F0E9466
:1007D000390581111CC0CE0188279770880F892F99
:1007E000881F990B919560E0806A0E9461058330B3
:1007F00071F440E060E08C2F90E00E949105883019
:1008000031F4812FDF91CF911F910C94D803DF91A8
:10081000CF911F910895EF92FF920F931F93CF9363
:100820008C017B010E94390581112BC0C8018827EA
:100830009770880F892F881F990B9195C82FC06AD0
:1008400060E08C2F0E9461058330D9F440E060E0C5
:10085000802F90E00E949105883099F40E94500505
:1008600081110FC061E08C2F0E946105853049F431
:1008700041E061E0C7010E9491058C3011F40E94B3
:10088000C705CF911F910F91FF90EF900895EF92C0
:10089000FF920F931F93CF93C82F8B01282F392FCF
:1008A000822F8C1BF801E80FF11D6081662379F01F
:1008B00079018FEFE81AF80AC9010E94E2038BE47C
:1008C0009DE10197F1F700C000009701E9CFC90150
:1008D000CF911F910F91FF90EF900C94E203CF9274
:1008E000DF92EF92FF921F93CF93DF93182F6B014C
:1008F000282F392F822F811BE601C80FD11D7901C6
:100900008FEFE81AF80ABE01C9010E940B04970193
:1009100088818111EFCFDF91CF911F91FF90EF90F0
:10092000DF90CF900895CF93DF93CDB7DEB7649774
:100930000FB6F894DEBF0FBECDBF85E0E0E6F0E075
:10094000DE011B9601900D928A95E1F7FE017096EB
:1009500085E0DF011D928A95E9F760E070E080E0B4
:1009600090E00E947B018CEA90E00E94680160E0C8
:1009700070E081E090E00E947B01CE010B960E9426
:1009800068010E940E05BE01655F7F4F8CE090E01C
:100990000E94470483EC99E00197F1F700C0000042
:1009A000BE016F5F7F4F81E190E00E946F0460E0C5
:1009B00070E082E090E00E9487018FEB90E00E945F
:1009C000680160E070E083E090E00E948701CE0162
:1009D00001960E946801FFCF90E094B983B984E842
:1009E00090E097BF86BF86B797B787FFFCCF089583
:1009F00084EC90E097BF86BF86B797B787FFFCCFA0
:100A000083B194B1089584E890E097BF86BF86B71C
:100A100097B787FFFCCF83B194B1089512B811B88E
:100A200061B172B16370772780E090E00E94260880
:100A30009B01AC0160E070E080E890E40E94210935
:100A40009B01AC010E9419079B01AC0160E070E0C2
:100A500080EC91E40E9485070E94F70771B960B9A4
:100A600082E090E093B982B984E090E097BF86BFBE
:100A7000089584EA90E097BF86BF86B797B787FF4F
:100A8000FCCF8FE39CE90197F1F700C0000081B132
:100A900092B1982F987F81E0983009F480E0089512
:100AA00084EA90E097BF86BF86B797B787FFFCCFF1
:100AB00081B192B1887F803111F480E0089582E0A5
:100AC0000895611102C090E004C0613021F490E00B
:100AD000019694B983B984E890E097BF86BF86B742
:100AE00097B787FFFCCF81B192B1887F883189F0B9
:100AF00081B192B1887F803271F081B192B1887FEB
:100B0000803459F081B192B1887F883441F087E018
:100B1000089583E0089584E0089585E0089586E0CF
:100B20000895CF93DF93EC0161110EC00E94EC0495
:100B300081B192B1887F883201F181B192B1887F11
:100B40008033E9F08AE020C06130B1F4411103C084
:100B50000E94F80404C0413019F40E940305888300
:100B600081B192B1887F803561F081B192B1887F87
:100B7000883549F08DE008C007C088E005C089E0ED
:100B800003C08BE001C08CE0DF91CF91089584E930
:100B900090E097BF86BF86B797B784FDFCCF0895D6
:100BA0001F920F920FB60F9211242F933F934F93E2
:100BB0005F936F937F938F939F93AF93BF93EF93C5
:100BC000FF93E091DA00F091DB00309709F009958E
:100BD000FF91EF91BF91AF919F918F917F916F9115
:100BE0005F914F913F912F910F900FBE0F901F90EB
:100BF00018951F920F920FB60F9211242F933F93C7
:100C00004F935F936F937F938F939F93AF93BF9314
:100C1000EF93FF93E091E400F091E500309709F045
:100C20000995FF91EF91BF91AF919F918F917F9126
:100C30006F915F914F913F912F910F900FBE0F9049
:100C40001F9018951F920F920FB60F9211242F9399
:100C50003F934F935F936F937F938F939F93AF9344
:100C6000BF93EF93FF93E091E200F091E3003097A0
:100C700009F00995FF91EF91BF91AF919F918F91ED
:100C80007F916F915F914F913F912F910F900FBE88
:100C90000F901F9018951F920F920FB60F9211246C
:100CA0002F933F934F935F936F937F938F939F9374
:100CB000AF93BF93EF93FF93E091E000F091E100D9
:100CC000309709F00995FF91EF91BF91AF919F91F6
:100CD0008F917F916F915F914F913F912F910F90E5
:100CE0000FBE0F901F9018951F920F920FB60F9284
:100CF00011242F933F934F935F936F937F938F9321
:100D00009F93AF93BF93EF93FF93E091DE00F09139
:100D1000DF00309709F00995FF91EF91BF91AF91F6
:100D20009F918F917F916F915F914F913F912F9103
:100D30000F900FBE0F901F9018951F920F920FB635
:100D40000F9211242F933F934F935F936F937F9351
:100D50008F939F93AF93BF93EF93FF93E091DC004A
:100D6000F091DD00309709F00995FF91EF91BF9167
:100D7000AF919F918F917F916F915F914F913F9133
:100D80002F910F900FBE0F901F9018951F920F92EA
:100D90000FB60F9211242F933F934F935F936F934E
:100DA0007F938F939F93AF93BF93EF93FF93E091C4
:100DB000E800F091E900309709F00995FF91EF9173
:100DC000BF91AF919F918F917F916F915F914F9163
:100DD0003F912F910F900FBE0F901F9018951F926B
:100DE0000F920FB60F9211242F933F934F935F935F
:100DF0006F937F938F939F93AF93BF93EF93FF93E3
:100E0000E091E600F091E700309709F00995FF9135
:100E1000EF91BF91AF919F918F917F916F915F9172
:100E20004F913F912F910F900FBE0F901F901895EB
:100E30005058BB27AA270E9430070C947A080E94BA
:100E40006C0838F00E94730820F039F49F3F19F4C1
:100E500026F40C9469080EF4E095E7FB0C94630803
:100E6000E92F0E948B0858F3BA17620773078407AB
:100E7000950720F079F4A6F50C94AD080EF4E095F2
:100E80000B2EBA2FA02D0B01B90190010C01CA0144
:100E9000A0011124FF27591B99F0593F50F4503EEF
:100EA00068F11A16F040A22F232F342F4427585FE1
:100EB000F3CF469537952795A795F0405395C9F7F9
:100EC0007EF41F16BA0B620B730B840BBAF09150B1
:100ED000A1F0FF0FBB1F661F771F881FC2F70EC050
:100EE000BA0F621F731F841F48F487957795679523
:100EF000B795F7959E3F08F0B0CF9395880F08F00F
:100F00009927EE0F9795879508950E9499070C945D
:100F10007A080E94730858F00E946C0840F029F487
:100F20005F3F29F00C94630851110C94AE080C94A7
:100F300069080E948B0868F39923B1F3552391F354
:100F4000951B550BBB27AA2762177307840738F038
:100F50009F5F5F4F220F331F441FAA1FA9F335D095
:100F60000E2E3AF0E0E832D091505040E695001C49
:100F7000CAF72BD0FE2F29D0660F771F881FBB1F03
:100F8000261737074807AB07B0E809F0BB0B802DE1
:100F9000BF01FF2793585F4F3AF09E3F510578F00D
:100FA0000C9463080C94AE085F3FE4F3983ED4F3CE
:100FB000869577956795B795F7959F5FC9F7880FE1
:100FC000911D9695879597F90895E1E0660F771F33
:100FD000881FBB1F621773078407BA0720F0621BC4
:100FE000730B840BBA0BEE1F88F7E09508950E94EF
:100FF000930888F09F5798F0B92F9927B751B0F010
:10100000E1F0660F771F881F991F1AF0BA95C9F78C
:1010100014C0B13091F00E94AD08B1E008950C9475
:10102000AD08672F782F8827B85F39F0B93FCCF328
:10103000869577956795B395D9F73EF49095809509
:10104000709561957F4F8F4F9F4F0895E89409C029
:1010500097FB3EF490958095709561957F4F8F4FEB
:101060009F4F9923A9F0F92F96E9BB279395F69501
:10107000879577956795B795F111F8CFFAF4BB0F7F
:1010800011F460FF1BC06F5F7F4F8F4F9F4F16C0E3
:10109000882311F096E911C0772321F09EE8872F6D
:1010A000762F05C0662371F096E8862F70E060E029
:1010B0002AF09A95660F771F881FDAF7880F9695A2
:1010C000879597F9089597F99F6780E870E060E049
:1010D00008959FEF80EC089500240A9416161706D1
:1010E00018060906089500240A9412161306140619
:1010F00005060895092E0394000C11F4882352F07C
:10110000BB0F40F4BF2B11F460FF04C06F5F7F4F33
:101110008F4F9F4F089557FD9058440F551F59F01A
:101120005F3F71F04795880F97FB991F61F09F3FD4
:1011300079F087950895121613061406551FF2CFFD
:101140004695F1DF08C0161617061806991FF1CF4D
:1011500086957105610508940895E894BB27662774
:101160007727CB0197F908950E94C7080C947A0855
:101170000E946C0838F00E94730820F0952311F04B
:101180000C9463080C94690811240C94AE080E9416
:101190008B0870F3959FC1F3950F50E0551F629F28
:1011A000F001729FBB27F00DB11D639FAA27F00DC0
:1011B000B11DAA1F649F6627B00DA11D661F829FE7
:1011C0002227B00DA11D621F739FB00DA11D621FCC
:1011D000839FA00D611D221F749F3327A00D611DE9
:1011E000231F849F600D211D822F762F6A2F1124CB
:1011F0009F5750409AF0F1F088234AF0EE0FFF1FFE
:10120000BB1F661F771F881F91505040A9F79E3F54
:10121000510580F00C9463080C94AE085F3FE4F332
:10122000983ED4F3869577956795B795F795E795AA
:101230009F5FC1F7FE2B880F911D9695879597F9B3
:101240000895FA01EE0FFF1F309621053105A1F137
:101250006115710561F48038BFE39B0749F168941B
:101260009038810561F08038BFEF9B0741F09923EA
:101270004AF5FF3FE1053105210519F1E89408948D
:10128000E795D901AA2329F4AB2FBE2FF85FD0F33D
:1012900010C0FF5F70F4A695E0F7F73950F019F031
:1012A000FF3A38F49F779F930DD00F9007FC90582A
:1012B000089546F00C94690860E070E080E89FE3D0
:1012C00008954FE79F775F934F933F932F930E942B
:1012D0001C0A2F913F914F915F910E94B4080C948A
:1012E000790929F416F00C9463080C94AD080C9459
:1012F00069080E949308A8F39638A0F707F80F92A0
:10130000E8942BE33AEA48EB5FE70E94CA080F92A1
:101310000F920F924DB75EB70F920E94640AE4E5F8
:10132000F0E00E94AB094F915F91EF91FF91E5953D
:10133000EE1FFF1F49F0FE57E0684427EE0F441FE1
:10134000FA95E1F74195550B0E94DE090F9007FED3
:101350000C94D2090895DF93CF931F930F93FF92BC
:10136000EF92DF927B018C01689406C0DA2EEF01C8
:101370000E94C708FE01E894A591259135914591F9
:101380005591A6F3EF010E943007FE019701A801D5
:10139000DA9469F7DF90EF90FF900F911F91CF9152
:1013A000DF9108959B01AC0160E070E080E89FE36D
:1013B0000C9485070C9463080C94980A0E94930877
:1013C000D8F39923C9F3940F511DA3F391505040C2
:1013D00094F059F0882332F0660F771F881F9150E0
:1013E0005040C1F79E3F51052CF7880F911D9695EF
:1013F000879597F908955F3FACF0983E9CF0BB2726
:10140000869577956795B79508F4B1609395C1F780
:10141000BB0F58F711F460FFE8CF6F5F7F4F8F4F1E
:101420009F4FE3CF0C94AE0816F00C94980A0C94DE
:10143000690868940C9463080E949308A8F39923A0
:10144000C1F3AEF3DF93CF931F930F93FF92C92F96
:10145000DD2788232AF02197660F771F881FDAF788
:1014600020E030E040E85FEB9FE3883920F0803EE9
:1014700038F021968F770E941907ECE7F0E004C05E
:101480000E941907E9EAF0E00E94AB098B01BE0156
:10149000EC01FB2E6F5771097595771F880B990B1F
:1014A0000E94280828E132E741E35FE30E94C70871
:1014B000AF2D9801AE01FF900F911F91CF91DF9159
:1014C0000E9430070C947A08FA01DC01AA0FBB1FB6
:1014D0009B01AC01BF5728F42227332744275078BB
:1014E00020C0B75190F4AB2F00244695379527952F
:1014F000011CA395D2F3002071F0220F331F441F6B
:10150000B395DAF30ED00C94180761307105A0E89A
:101510008A07B94630F49B01AC01662777278827F4
:101520009078309621F0208331834283538308954D
:101530009F3F31F0915020F4879577956795B79547
:10154000880F911D9695879597F90895F894FFCF88
:10155000417465660000000000006174656600006B
:101560000000000001000000000101010000000077
:101570000000000000000202020200000100010061
:10158000000000006265666F72206565203A2000E9
:101590006166746572206565203A20006920736574
:1015A0006E7420746F202020307830303043006912
:1015B00020726561642066726F6D20307830303142
:0215C0003100F8
:00000001FF
