:020000040800F2
:1000000000500020990B0008E90B0008E90B0008DC
:10001000E90B0008E90B0008E90B000800000000EC
:10002000000000000000000000000000E90B0008D4
:10003000E90B000800000000E90B0008490B00086C
:10004000E90B0008E90B0008E90B0008E90B0008C0
:10005000E90B0008E90B00080D0200083102000856
:10006000E90B0008E90B0008E90B0008E90B0008A0
:10007000E90B0008E90B0008E90B0008E90B000890
:10008000E90B0008E90B0008E90B0008E90B000880
:10009000E90B0008E90B0008E90B0008E90B000870
:1000A000E90B0008E90B0008E90B0008E90B000860
:1000B000E90B0008E90B0008E90B0008E90B000850
:1000C000E90B0008E90B0008E90B0008E90B000840
:1000D000E90B0008E90B0008E90B0008E90B000830
:1000E000E90B0008E90B000800000000E90B00081C
:1000F000E90B0008E90B0008E90B0008E90B000810
:10010000E90B0008E90B0008E90B0008E90B0008FF
:10011000E90B0008E90B0008E90B0008E90B0008EF
:10012000E90B0008E90B0008E90B0008E90B0008DF
:1001300010B5054C237833B9044B13B10448AFF321
:1001400000800123237010BD00000020000000008B
:10015000340C000808B5034B1BB103490348AFF347
:10016000008008BD0000000004000020340C0008DE
:1001700080B500AF00F044FC0221022000F05AFCE0
:100180000321022000F056FC0421022000F052FC62
:1001900000F07BF900F060F900BF80BD80B500AFD2
:1001A000094800F09BF90021012000F0D3F900F08C
:1001B0007FFC0649064800F087FC01211F2000F063
:1001C0004BFA00BF80BD00BF580C0008D5010008E5
:1001D000A086010080B500AF0021002000F09AF950
:1001E000084800F07BF91F2000F06AFB064B1B68F3
:1001F000184600F0E1F9044B1B680133024A136012
:1002000000BF80BD640C00081C00002080B500AF5A
:10021000054800F063F9072000F096FB034800F062
:100220005DF900BF80BD00BF6C0C0008740C0008B5
:1002300080B500AF062000F0B5FB024800F04EF993
:1002400000BF80BD7C0C000880B485B000AF0346C1
:10025000FB800023FB600DE00023BB6003E000BFD8
:10026000BB680133BB60BB68B3F5167FF7DDFB6885
:100270000133FB60FB88FA689A42EDDD00BF00BFE6
:100280001437BD4680BC704780B582B000AF0346CE
:10029000FB710021142000F0B5FAFB79DB09DBB219
:1002A0001946132000F0AEFAFB799B09DBB203F08C
:1002B0000103DBB21946122000F0A4FAFB795B09B6
:1002C000DBB203F00103DBB21946112000F09AFA09
:1002D000FB791B09DBB203F00103DBB219461020E6
:1002E00000F090FA0121152000F08CFA0120FFF7B0
:1002F000ABFF0021152000F085FA0120FFF7A4FFD5
:10030000FB79DB08DBB203F00103DBB219461320F3
:1003100000F078FAFB799B08DBB203F00103DBB253
:100320001946122000F06EFAFB795B08DBB203F08D
:100330000103DBB21946112000F064FAFB7903F0E7
:100340000103DBB21946102000F05CFA01211520F0
:1003500000F058FA0120FFF777FF0021152000F088
:1003600051FA0120FFF770FF00BF0837BD4680BD7E
:1003700080B582B000AF0346FB710121142000F06C
:1003800041FAFB79DB09DBB21946132000F03AFA97
:10039000FB799B09DBB203F00103DBB219461220A3
:1003A00000F030FAFB795B09DBB203F00103DBB24A
:1003B0001946112000F026FAFB791B09DBB203F085
:1003C0000103DBB21946102000F01CFA01211520B0
:1003D00000F018FA0120FFF737FF0021152000F088
:1003E00011FA0120FFF730FFFB79DB08DBB203F0E5
:1003F0000103DBB21946132000F004FAFB799B08D5
:10040000DBB203F00103DBB21946122000F0FAF967
:10041000FB795B08DBB203F00103DBB21946112064
:1004200000F0F0F9FB7903F00103DBB2194610206C
:1004300000F0E8F90121152000F0E4F90120FFF7B0
:1004400003FF0021152000F0DDF90120FFF7FCFE7D
:1004500000BF0837BD4680BD80B500AF3220FFF732
:10046000F3FE0220FFF710FF2820FFF70DFF0C20FE
:10047000FFF70AFF0120FFF707FF0120FFF7E4FE67
:100480000620FFF701FF00BF80BD80B500AF01214E
:10049000102000F0E1F80121112000F0DDF8012129
:1004A000122000F0D9F80121132000F0D5F8012125
:1004B000152000F0D1F80121142000F0CDF800BF84
:1004C00080BD80B582B000AF0346FB71FB79184652
:1004D000FFF74EFF00BF0837BD4680BD80B584B032
:1004E00000AF78600023FB7309E0FB7B7A6813445C
:1004F0001B781846FFF7E5FFFB7B0133FB73FB7BA3
:100500007A6813441B78002BEFD100BF00BF10376F
:10051000BD4680BD80B582B000AF03460A46FB7180
:100520001346BB71FB79002B07D1BB7963F07F03C6
:10053000DBB21846FFF7A8FE08E0FB79012B05D1D6
:10054000BB79403BDBB21846FFF79EFE00BF083781
:10055000BD4680BD80B582B000AF03460A46FB7140
:100560001346BB71FB79002B06D1BB79803BDBB214
:100570001846FFF789FE08E0FB79012B05D1BB790E
:10058000403BDBB21846FFF77FFEFB79022B06D11A
:10059000BB796C3BDBB21846FFF776FE08E0FB79CF
:1005A000032B05D1BB792C3BDBB21846FFF76CFE61
:1005B00000BF0837BD4680BD80B586B000AF78600B
:1005C0000023FB757B68002B03D13020FFF779FFF8
:1005D0003DE07B68002B25DA7B685B427B602D2049
:1005E000FFF76FFF1EE07A681A4B83FB0213991026
:1005F000D317C91A0B469B000B445B00D11ACAB231
:10060000FB7D3032D2B218333B4403F80C2CFB7D17
:100610000133FB757B680F4A82FB03129210DB17D4
:10062000D31A7B607B68002BDDD1FB7DBB750BE0B3
:10063000BB7D013B18333B4413F80C3C1846FFF7D5
:1006400040FFBB7D013BBB75BB7D002BF0D1183754
:10065000BD4680BD6766666680B485B000AF034660
:100660000A46FB711346BB71FB791B09FB73FB79CF
:1006700003F00F03BB73FB7B022B78D0022B00F33C
:10068000AE80002B02D0012B39D0A8E0BB7B072B1A
:1006900017D8594B1B68BA7B92000F2101FA02F25E
:1006A000D2431146544A0B401360534B1B68B9792F
:1006B000BA7B920001FA02F211464F4A0B431360D3
:1006C0008FE0BB7B0F2B00F28C804B4B5B68BA7BBF
:1006D000083A92000F2101FA02F2D2431146464A2B
:1006E0000B405360444B5B68B979BA7B083A92007F
:1006F00001FA02F21146404A0B43536071E0BB7BA2
:10070000072B17D83D4B1B68BA7B92000F2101FACB
:1007100002F2D2431146394A0B401360374B1B6833
:10072000B979BA7B920001FA02F21146334A0B43BF
:10073000136058E0BB7B0F2B55D8304B5B68BA7BFE
:10074000083A92000F2101FA02F2D24311462B4AD5
:100750000B405360294B5B68B979BA7B083A920029
:1007600001FA02F21146254A0B4353603BE0BB7B82
:10077000072B17D8224B1B68BA7B92000F2101FA76
:1007800002F2D24311461E4A0B4013601C4B1B68F9
:10079000B979BA7B920001FA02F21146184A0B436A
:1007A000136022E0BB7B0F2B1FD8154B5B68BA7B15
:1007B000083A92000F2101FA02F2D2431146104A80
:1007C0000B4053600E4B5B68B979BA7B083A9200D4
:1007D00001FA02F211460A4A0B43536005E000BFDA
:1007E00004E000BF02E000BF00E000BF00BF14371C
:1007F000BD4680BC704700BF00080140000C0140AE
:100800000010014080B485B000AF03460A46FB717A
:100810001346BB71FB791B09FB73FB7903F00F03D4
:10082000BB73BB7B0F2B40D8BB79012B1BD1FB7B50
:10083000022B12D0022B35DC002B02D0012B06D06C
:1008400030E0BB7B01229A401A4B1A612DE0BB7B42
:1008500001229A40184B1A6127E0BB7B01229A4083
:10086000164B1A6121E0BB79002B1ED1FB7B022BBA
:1008700012D0022B18DC002B02D0012B06D013E083
:10088000BB7B01229A400B4B5A610EE0BB7B0122DD
:100890009A40094B5A6108E0BB7B01229A40074B02
:1008A0005A6102E000BF00E000BF00BF1437BD4640
:1008B00080BC704700080140000C0140001001405E
:1008C00080B485B000AF0346FB71FB791B09FB7355
:1008D000FB7903F00F03BB73FB7B022B1CD0022BB5
:1008E00025DC002B02D0012B0BD020E0134BDB6862
:1008F000BA7B012101FA02F21146104A4B40D36043
:1009000016E00F4BDB68BA7B012101FA02F21146B7
:100910000B4A4B40D3600BE00A4BDB68BA7B0121EA
:1009200001FA02F21146074A4B40D36000E000BFD3
:1009300000BF1437BD4680BC704700BF00080140AF
:10094000000C01400010014080B483B000AF0346AA
:10095000FB71FB791F2B0CD8114BD3F80031FA79BE
:10096000012101FA02F211460D4A0B43C2F800318F
:1009700011E0FB793B2B0ED8FB79203BFB71084B38
:10098000D3F80431FA79012101FA02F21146044A3E
:100990000B43C2F8043100BF0C37BD4680BC704722
:1009A00000E100E080B483B000AF0346FB71FB7947
:1009B0001F2B0CD8114BD3F88031FA79012101FAA1
:1009C00002F211460D4A0B43C2F8803111E0FB7967
:1009D0003B2B0ED8FB79203BFB71084BD3F88431BD
:1009E000FA79012101FA02F21146044A0B43C2F8D6
:1009F000843100BF0C37BD4680BC704700E100E089
:100A000080B400AF0A4B5B68094A23F001035360CE
:100A1000074B5B68064A23F002035360044B1B68D4
:100A2000034A43F00103136000BFBD4680BC70471A
:100A30000010024080B483B000AF03460A46FB7149
:100A40001346BB71BB791F2B2AD8FB79022B1CD014
:100A5000022B25DC002B02D0012B0BD020E0134B06
:100A60005B69BA79012101FA02F211460F4A0B4380
:100A7000536115E00D4BDB69BA79012101FA02F2ED
:100A800011460A4A0B43D3610AE0084B9B69BA79C5
:100A9000012101FA02F21146044A0B43936100BF9F
:100AA00000BF0C37BD4680BC704700BF001002403D
:100AB00080B400AF034B00221A6000BFBD4680BC6B
:100AC000704700BF10E000E080B483B000AF7860F2
:100AD00039600D4A7B6853600B4B1B680A4A43F030
:100AE00001031360094A3B681360094B01221A7025
:100AF000054B1B68044A43F00203136000BF0C3728
:100B0000BD4680BC704700BF10E000E02000002020
:100B10002400002080B400AF0A4B1B68094A23F070
:100B200002031360074B1B68064A23F0010313609E
:100B3000044B00225A60034B00229A6000BFBD465E
:100B400080BC704710E000E080B582B000AF0A4B77
:100B50001B78002B01D1FFF7DDFF084B1B6898477E
:100B6000074B1B681B0CDBB203F00103FB7100BFDA
:100B70000837BD4680BD00BF2400002020000020B3
:100B800010E000E080B500AFFFF7F2FAFFF706FBD8
:100B90000023184680BD00000D488546AFF3008055
:100BA0000C480D490D4A002302E0D458C4500433C8
:100BB000C4188C42F9D30A4A0A4C002301E013609E
:100BC0000432A242FBD300F011F8FFF7DBFFFEE78F
:100BD0000050002000000020000000208C0C0008C5
:100BE0000000002028000020FEE7000070B500266D
:100BF0000C4D0D4C641BA410A64209D100F01AF84C
:100C000000260A4D0A4C641BA410A64205D170BDF3
:100C100055F8043B98470136EEE755F8043B9847F2
:100C20000136F2E7840C0008840C0008840C0008EC
:100C3000880C0008F8B500BFF8BC08BC9E46704799
:0C0C4000F8B500BFF8BC08BC9E46704729
:100C4C004E5649435F5465737400000053544B5F18
:100C5C00546573740000000048495F53544B000006
:100C6C00455830200000000045583058585878003E
:080C7C00455831200000000082
:040C8400550100080E
:040C8800310100082E
:0400000508000B994B
:00000001FF
